:100000000C94BD070C94322E0C944E2E0C94DA07EF
:100010000C94DA070C94DA070C94DA070C94A50810
:100020000C94DA070C94DA070C94672E0C94DA0718
:100030000C94DA070C94BB140C9438140C94DA0763
:100040000C94642D0C94DA070C94DA070C94DA07FC
:100050000C94DA078D098A098709840981097E09C8
:1000600091097B09084AD73B3BCE016E84BCBFFD9A
:10007000C12F3D6C74319ABD56833DDA3D00C77F78
:1000800011BED9E4BB4C3E916BAAAABE0000008011
:100090003F07634236B79BD8A71A39685618AEBADD
:1000A000AB558C1D3CB7CC5763BD6DEDFD753EF671
:1000B000177231BF000000803F08000000BE92248C
:1000C00049123EABAAAA2ABECDCCCC4C3E000000C1
:1000D00080BEABAAAAAA3E00000000BF00000080BC
:1000E0003F0000000000084178D3BB4387D1133D97
:1000F000190E3CC3BD4282AD2B3E68EC8276BED960
:100100008FE1A93E4C80EFFFBE01C4FF7F3F00009E
:10011000000000004E414E494E495459494E46CDCB
:10012000CCCC3D0AD7233C17B7D13877CC2B3295AE
:1001300095E6241FB14F0A000020410000C842008C
:10014000401C4620BCBE4CCA1B0E5AAEC59D74490D
:100150006E7665727465640A000A0D000A0D5B49CB
:100160004E465D205820616363656C2076616C7536
:10017000653A005B4C4F475D20496E7465726E6155
:100180006C20384D487A206F7363696C6C61746FB2
:10019000720D0A005B4C4F475D20504C4C20776934
:1001A000746820582061786973206779726F73636F
:1001B0006F7065207265666572656E63650D0A0015
:1001C0005B4C4F475D20504C4C2077697468205938
:1001D0002061786973206779726F73636F7065202F
:1001E0007265666572656E63650D0A005B4C4F470C
:1001F0005D20504C4C2077697468205A20617869E2
:1002000073206779726F73636F70652072656665BE
:1002100072656E63650D0A005B4C4F475D20504C64
:100220004C20776974682065787465726E616C2003
:1002300033322E3736386B487A20726566657265C0
:100240006E63650D0A005B4C4F475D20504C4C209F
:10025000776974682065787465726E616C203139D5
:100260002E324D487A207265666572656E63650D43
:100270000A005B4C4F475D2053746F7073207468A5
:100280006520636C6F636B20616E64206B656570C5
:1002900073207468652074696D696E672067656E88
:1002A000657261746F7220696E2072657365740D7A
:1002B0000A005B4C4F475D204D505536303530209D
:1002C000696E697469616C697A65640D0A000A0A6D
:1002D0000D5B4C4F475D204D505536303530206119
:1002E0006374697665210D0A000D0A003A56414C87
:1002F000000D0A000D0A003A454E3D000D0A00456A
:100300004E41424C4500000000060300651756416F
:100310004C5545000000000005030665170D0A0056
:100320000D0A003A4D41583D000D0A000D0A003AF1
:100330004D494E3D000D0A004D494E0000000000A1
:10034000000003030059184D415800000000000050
:1003500000030300A818524F555445000000000048
:10036000050400731D0D0A000D0A003A4E53454C5A
:100370003D000D0A003A53454C3D0053454C0000EA
:1003800000000000000303004F194E53454C0000CD
:100390000000000004040094190D0A003A56414C74
:1003A0003D000D0A000D0A003A4D41583D000D0A6E
:1003B000000D0A003A4D494E3D000D0A004D494ED0
:1003C000000000000000000303002B1A4D415800FC
:1003D0000000000000000303007A1A56414C554506
:1003E0000000000000050300C91A524F5554450093
:1003F00000000000050400CC1D0D0A000D0A000DD0
:100400000A000D0A003A4E4348413D000D0A000D16
:100410000A003A4348413D000D0A000D0A000D0A4A
:10042000003A4E4348413D000D0A000D0A003A4390
:1004300048413D000D0A00494E505554000000004F
:1004400000050300AD1D4F555450555400000000E9
:10045000060300061E4348414E4E454C000000076F
:100460000300DD1B4E4348414E4E454C000008033F
:1004700000071D545950450000000000000403000F
:100480007D1C4348414E4E454C000000070300527E
:100490001B4E4348414E4E454C00000804009B1C37
:1004A000545950450000000000000403005F1C0D7B
:1004B0000A000D0A000D0A000D0A00564F4C544167
:1004C0004745000000070400671E43555252454E41
:1004D00054000000070400851E5354415445000099
:1004E0000000000504005F1E56414C554500000009
:1004F0000000050300A31E455252350D004552521F
:10050000330D00455252360D00455252340D004510
:100510005252320D00455252310D000D0A002C543A
:100520004343522C002C66696C3A002C443A002C50
:10053000493A002C503A002C6F6D613A002C6F6DD7
:10054000693A002C696D613A002C696D693A007353
:1005500065743A005B494E465D20436F6E6669677D
:100560003A000D0A002C544343522C002C73756D35
:100570002C002C442C002C492C002C502C002C78C6
:100580005F6F7279672C002C782C00732C000D0A99
:100590000020544343523A0020696D61783A0020AC
:1005A000696D696E3A0020443A0020493A002050B3
:1005B0003A00783A0063757276653F0D002C4F550E
:1005C000543A002C4348323A004348313A006375AC
:1005D0007276653F0D002C4F55543A002C4348323B
:1005E0003A004348313A0063757276653F0D004327
:1005F00048313A0072656164793E0D0A005B494EEC
:10060000465D204B616C6D616E20512076616C758A
:10061000653A005B494E465D204B616C6D616E2012
:10062000522076616C75653A002C2076616C756598
:100630003A20000D0A5B4C4F475D205477692072C9
:100640006561642066726F6D20616464723A200097
:100650005B494E465D20656E61626C65206F757406
:100660007075743A20005B494E465D20436F6E748E
:10067000726F6C6C6572206F757470757420766122
:100680006C75652073657420746F3A005B494E4643
:100690005D2046696C7465722076616C75653A20E0
:1006A000005B494E465D204779726F2063616C693B
:1006B0006272617465642C206C6F6F7020636E745D
:1006C0003A20005B494E465D2050494420646573E2
:1006D000697265642076616C75653A005B494E46C7
:1006E0005D2050494420442076616C75653A005B7A
:1006F000494E465D2050494420492076616C75651D
:100700003A005B494E465D205049442050207661B6
:100710006C75653A005B494E465D204F7574707587
:1007200074206D61782076616C75653A005B494E86
:10073000465D204F7574707574206D696E2076610A
:100740006C75653A005B494E465D20496E70757464
:10075000206D61782076616C75653A005B494E4684
:100760005D20496E7075745F6D696E5F76616C7542
:10077000653A005B494E465D20456E61626C653AA4
:10078000000D0A002C00436F6E6669673A0023492A
:100790004E495400F22843483100000034254348B4
:1007A0003200000059254348330000007F254348AC
:1007B00034000000B2254F5554000000122550317E
:1007C0005F656E00FC2550315F500000C42650313B
:1007D0005F490000F32650315F440000222750316A
:1007E0005F736574572750315F696D6926265031F4
:1007F0005F696D614D2650315F6F6D6974265031B0
:100800005F6F6D619B2650315F63616C7E27503155
:100810005F66696CA52750315F6F7574D5275031BD
:100820005F70656E002850315F7267792C285031F7
:100830005F7477693E2850315F6B61528E2850316A
:100840005F6B6151BE2850315F636F6EEE2850318F
:100850005F656F31FC274552524F520D0A004552D9
:10086000524F520D0A0070726F626C656D0D0A0076
:1008700073797374656D20436F6D6D616E64206371
:10088000757272656E746C79206E6F7420737570FA
:10089000706F72746564210D0A00737461747573EE
:1008A00020436F6D6D616E642063757272656E7446
:1008B0006C79206E6F7420737570706F72746564DC
:1008C000210D0A00323120436F6D6D616E6420632B
:1008D000757272656E746C79206E6F7420737570AA
:1008E000706F72746564210D0A00323020436F6DA1
:1008F0006D616E642063757272656E746C79206EC2
:100900006F7420737570706F72746564210D0A00C6
:100910003138436F6D6D616E642063757272656E00
:10092000746C79206E6F7420737570706F7274655B
:1009300064210D0A00313720436F6D6D616E6420B4
:1009400063757272656E746C79206E6F7420737546
:1009500070706F72746564210D0A00313620436F28
:100960006D6D616E642063757272656E746C792052
:100970006E6F7420737570706F72746564210D0AE8
:1009800000313520436F6D6D616E64206375727246
:10099000656E746C79206E6F7420737570706F72F1
:1009A000746564210D0A00313020436F6D6D616EF6
:1009B000642063757272656E746C79206E6F74203A
:1009C000737570706F72746564210D0A003920436D
:1009D0006F6D6D616E642063757272656E746C7993
:1009E000206E6F7420737570706F72746564210D62
:1009F0000A003820436F6D6D616E642063757272FA
:100A0000656E746C79206E6F7420737570706F7280
:100A1000746564210D0A003720436F6D6D616E644B
:100A20002063757272656E746C79206E6F742073BA
:100A30007570706F72746564210D0A003620436F03
:100A40006D6D616E642063757272656E746C792071
:100A50006E6F7420737570706F72746564210D0A07
:100A6000003520436F6D6D616E6420637572726531
:100A70006E746C79206E6F7420737570706F727401
:100A80006564210D0A003420436F6D6D616E642032
:100A900063757272656E746C79206E6F74207375F5
:100AA00070706F72746564210D0A003320436F6D9E
:100AB0006D616E642063757272656E746C79206E00
:100AC0006F7420737570706F72746564210D0A0005
:100AD0003220436F6D6D616E642063757272656E56
:100AE000746C79206E6F7420737570706F7274659A
:100AF00064210D0A003120436F6D6D616E642063C7
:100B0000757272656E746C79206E6F742073757077
:100B1000706F72746564210D0A005343504920635D
:100B20006F6D6D616E6420696E7465726661636578
:100B30002C20534E3A3030303030310D0A002A49E3
:100B4000444E000000000000040400A52A2A434C83
:100B500053000000000000040400AB2A2A4553455E
:100B6000000000000000040400B12A2A455352008E
:100B70000000000000040400B72A2A4F5043000080
:100B800000000000040400BD2A2A4F505400000059
:100B9000000000040400C32A2A525354000000003D
:100BA0000000040400C92A2A535245000000000036
:100BB00000040400CF2A2A53544200000000000021
:100BC000040400D52A2A54535400000000000004F5
:100BD0000400DB2A2A5741490000000000000404F9
:100BE00000E12A524F55544500000000000504055D
:100BF000251E494E50555400000000000503051500
:100C00001953454E53450000000000050305C11E61
:100C100043414C43554C415445000904051F1854A9
:100C2000524947474552000000070400E72A44495B
:100C300053504C4159000000070400ED2A464F5222
:100C40004D415400000000060400F32A534F555252
:100C5000434500000000060405F92A4F555450553D
:100C60005400000000060405181B4D454D4F525915
:100C700000000000060300FF2A4D4D454D4F52591C
:100C8000000000070400052B494E535452554D45B2
:100C90004E540A0400DF19535441545553000000C8
:100CA000000604000B2B53595354454D000000001F
:100CB000060400112B0D0A0D0A000D0A0978332DC8
:100CC00020776172746F73632077796A736320632E
:100CD0007966726F777963682031286F757431296E
:100CE0002C2032286F757432292C2033286F7574AC
:100CF000312069206F75743229000D0A0978312C72
:100D00007832202D20776172746F77736320777942
:100D10006A736320616E616C6F676F7779636820B7
:100D200028302D3130323329000D0A47647A696545
:100D300020583A000D0A094348343A78312C783269
:100D40002C78335C725C6E000D0A094348333A78A4
:100D5000312C78325C725C6E000D0A5A61707974C5
:100D6000616E6965206764792023494E49543A329F
:100D70002C59000D0A094348323A785C725C6E00C7
:100D80000D0A6C75623A000D0A094348313A785CE5
:100D9000725C6E000D0A5A61707974616E6965202B
:100DA0006764792023494E49543A312C59000D0A81
:100DB0000D0A000D0A28303C3C31292D20706F6D42
:100DC000696172207072616475206E61206B616E62
:100DD000616C652032000D0A28313C3C31292D2000
:100DE000706F6D696172206E617069656369612001
:100DF0006E61206B616E616C652032000D0A2830D7
:100E00003C3C30292D20706F6D69617220707261D9
:100E10006475206E61206B616E616C652031000D20
:100E20000A28313C3C30292D20706F6D6961722099
:100E30006E61706965636961206E61206B616E61CE
:100E40006C652031000D0A6F72617A20593A000DED
:100E50000A000D0A09332D6A6564656E206B616EA8
:100E6000616C207A206B6F6D656E7461727A616D52
:100E70006920706F64637A617320696E69636A6167
:100E80006C697A61636A69206D6F64756C75000DB9
:100E90000A09322D6B616E616C204348312C434846
:100EA000322C2077796A7363696120637966726F87
:100EB0007765000D0A09312D74796C6B6F206B61B9
:100EC0006E616C2031202843483129000D0A4764A7
:100ED0007A696520583A000D0A0923494E49543A67
:100EE000582C595C6E5C72202D3E2023494E49548B
:100EF0003A582C59284C462928435229000D0A0DEE
:100F00000A496E69636A616C697A61636A61206D1E
:100F10006F64756C753A000A0A0D50726F6A656BE2
:100F20007420696E7A796E696572736B69207631A7
:100F30002E322C20526F6265727420576F646E6976
:100F40006B204149522C20737065636A616C697A29
:100F500061636A61204152530D0A4E7220696E64CA
:100F60002E20323236343536000D0A0D0A000A0AB8
:100F70000D53746172742E2E2E0011241FBECFE506
:100F8000D8E0DEBFCDBF10E0A0E6B0E0EAE9FDE6C4
:100F900002C005900D92A63CB107D9F724E0A6EC5B
:100FA000B0E001C01D92A13CB207E1F70E94902E73
:100FB0000C94CB360C9400000895089581E090E0E5
:100FC0009BBD8ABD8FB580688FBD41E02AB53BB51A
:100FD0008091FF00909100012817390790F48AB59D
:100FE0009BB5C2969BBD8ABD8BB384278BBB2FEF6D
:100FF0008FE392E0215080409040E1F700C0000074
:10100000E5CF81E00C942E218FB580628FBD0895CD
:1010100021E08AB59BB5853F914078F08AB59BB5B4
:10102000C2979BBD8ABD8BB382278BBB8FEF9FE896
:101030000197F1F700C00000ECCF8FB58F778FBD1F
:1010400008958FB58F7D8FBD08958FB5881F882730
:10105000881F0895EEEFF0E081819281948383836D
:1010600008958091FF0090910001089521E08AB5D4
:101070009BB5853F914048F08AB59BB5C2979BBD13
:101080008ABD8BB382278BBBF2CF8FB58F778FBD95
:101090000895813E27E49207C0F430910301232F85
:1010A000217030FF0DC020E038E4A901481B590B26
:1010B0005BBD4ABD8FE491E00E942A1320E006C088
:1010C000909300018093FF0001C021E0822F0895DA
:1010D0009C01293F87E4380788F49091FD00892F0F
:1010E000817090FF08C080E098E4821B930B99BD4B
:1010F00088BD80E0089539BD28BD089581E0089538
:101100009091030180FF02C0916001C09E7F909387
:1011100003019091FD0081FF02C0916001C09E7F9C
:101120009093FD0008958EB580618EBD8EB582606E
:101130008EBD88EF97E497BD86BD1BBC1ABC19BC59
:1011400018BC89B7806189BF08951F920F920FB6AE
:101150000F9211248F939F938091FF009091000133
:101160009BBD8ABD9F918F910F900FBE0F901F90D6
:101170001895E4E7F1E080818E7F80830895CF9316
:10118000DF931F92CDB7DEB7AE014F5F5F4F682F81
:1011900080ED0E942A2089810F90DF91CF910895E0
:1011A0000C94BF08462F682F80ED0C945C201F9391
:1011B000CF93DF93C82FD62F142F0E94BF0861E072
:1011C00070E001C0660FDA95EAF7112311F0682B81
:1011D00002C0609568238C2FDF91CF911F910C94F2
:1011E000D208482F66E08BE60C94D708CF93C82F1F
:1011F000813079F048F0823089F08330D9F48CEE78
:1012000090ECA9E7BDE30EC08FE39EE1AAEFBBE33C
:1012100009C080E792E2AAE7BCE304C08FED9FEB30
:10122000A9EFBCE380935A0190935B01A0935C010A
:10123000B0935D018BE10E94BF0898E0C99F9001C7
:101240001124877E682F622B8BE1CF910C94D208FA
:10125000CF93C82F813079F048F0823089F0833005
:10126000D9F488E195EFAFEFB9E30EC080E49AEDD1
:10127000AFE7B8E309C080E49AEDAFEFB8E304C08C
:1012800080E49AEDAFE7B9E380935E0190935F014C
:10129000A0936001B09361018CE10E94BF0898E0C7
:1012A000C99F90011124877E682F622B8CE1CF911A
:1012B0000C94D208CF93C82F8BE60E94BF08887F7A
:1012C000682F6C2B8BE6CF910C94D20808958BE697
:1012D0000E94BF08877008958091740180FF21C02B
:1012E0000E94670990E088309105D8F4FC01E65D22
:1012F000FF4F0C94382F82E792E011C086E492E011
:101300000EC088E192E00BC08CEE91E008C080EC4A
:1013100091E005C084E991E002C083E791E00C947C
:101320002A1308950F931F93CF93DF9300D000D01B
:1013300000D0CDB7DEB78C018091740180FF2CC046
:101340009E012F5F3F4F46E063E480ED0E94FE1F49
:10135000698170E0962F8827682B792B072E000C67
:10136000880B990B0E945331609310017093110107
:1013700080931201909313016093140170931501EF
:1013800080931601909317016093180170931901CF
:1013900080931A0190931B018CE0E0E1F1E0D80109
:1013A00001900D928A95E1F7C80126960FB6F89440
:1013B000DEBF0FBECDBFDF91CF911F910F9108957A
:1013C000CF92DF92EF92FF920F931F93CF93DF9311
:1013D000CDB7DEB72C970FB6F894DEBF0FBECDBFEA
:1013E0008C018091740180FF24C1CE0101960E947E
:1013F000920980915801C0905A01D0905B01E09011
:101400005C01F0905D01882309F451C020914001F6
:10141000309141014091420150914301609110018E
:101420007091110180911201909113010E94892FF6
:10143000A70196010E94423260932801709329010E
:1014400080932A0190932B01209144013091450112
:10145000409146015091470160911401709115012E
:1014600080911601909117010E94892FA701960182
:101470000E94423260932C0170932D0180932E01C3
:1014800090932F01209148013091490140914A01E8
:1014900050914B01609118017091190180911A01CE
:1014A00090911B010E94892FA701960132C0A701CC
:1014B000960160911001709111018091120190913B
:1014C00013010E9442326093280170932901809396
:1014D0002A0190932B01A70196016091140170914C
:1014E000150180911601909117010E94423260937C
:1014F0002C0170932D0180932E0190932F01A70151
:101500009601609118017091190180911A019091D2
:101510001B010E944232609330017093310180932D
:1015200032019093330180915901882309F481C0DD
:10153000609128017091290180912A0190912B01DD
:101540000E941B319B0177FF04C022273327261BF3
:10155000370BB901330F880B990B0E94533120913F
:1015600034013091350140913601509137010E948C
:10157000683087FF08C0109228011092290110924C
:101580002A0110922B0160912C0170912D01809104
:101590002E0190912F010E941B319B0177FF04C007
:1015A00022273327261B370BB901330F880B990BE2
:1015B0000E945331209138013091390140913A0114
:1015C00050913B010E94683087FF08C010922C01A7
:1015D00010922D0110922E0110922F016091300176
:1015E0007091310180913201909133010E941B3141
:1015F0009B0177FF04C022273327261B370BB90135
:10160000330F880B990B0E94533120913C0130918C
:101610003D0140913E0150913F010E94683087FF9B
:1016200008C01092300110923101109232011092D4
:1016300033018CE0E8E2F1E0D80101900D928A9547
:10164000E1F7C8012C960FB6F894DEBF0FBECDBFF0
:10165000DF91CF911F910F91FF90EF90DF90CF908E
:1016600008950F931F93CF93DF9300D000D000D045
:10167000CDB7DEB78C018091740180FF2CC09E0134
:101680002F5F3F4F46E06BE380ED0E94FE1F6981B4
:1016900070E0962F8827682B792B072E000C880B7B
:1016A000990B0E945331609304017093050180935C
:1016B00006019093070160930801709309018093DC
:1016C0000A0190930B0160930C0170930D018093BC
:1016D0000E0190930F018CE0E4E0F1E0D80101905D
:1016E0000D928A95E1F7C80126960FB6F894DEBFF1
:1016F0000FBECDBFDF91CF911F910F910895AF9293
:10170000BF92CF92DF92EF92FF920F931F93CF93EE
:10171000DF93CDB7DEB72C970FB6F894DEBF0FBEC0
:10172000CDBF5C01CE0101960E94310B04E011E0B7
:10173000C0905E01D0905F01E0906001F090610187
:10174000F8012081318142815381C701B6010E9495
:1017500042322AE038EE4CE151E40E944232F80174
:10176000608F718F828F938F24813581468157815D
:10177000C701B6010E9442322AE038EE4CE151E442
:101780000E944232F801648F758F868F978F208573
:10179000318542855385C701B6010E9442322AE055
:1017A00038EE4CE151E40E944232F80160A371A38B
:1017B00082A393A38CE0ECE1F1E0D50101900D92BE
:1017C0008A95E1F7C5012C960FB6F894DEBF0FBEDF
:1017D000CDBFDF91CF911F910F91FF90EF90DF90E0
:1017E000CF90BF90AF9008954F925F926F927F928B
:1017F0008F929F92AF92BF92CF92DF92EF92FF9221
:101800000F931F93CF93DF93CDB7DEB7A4970FB697
:10181000F894DEBF0FBECDBF9091740190FF5FC101
:10182000082F81E08093580110E019A21AA21BA290
:101830001CA21D8E1E8E1F8E18A2198E1A8E1B8E34
:101840001C8E1D8A1E8A1F8A188E812C912C540191
:1018500024013501011709F482C0CE0101960E94CE
:101860009209C0901001D0901101E0901201F09007
:101870001301A7019601C301B2010E948A2F2B0117
:101880003C018091140190911501A0911601B09135
:1018900017018D879E87AF87B88B9C01AD01C5016D
:1018A000B4010E948A2F4B015C0180911801909134
:1018B0001901A0911A01B0911B01898B9A8BAB8BF6
:1018C000BC8B9C01AD016D897E898F89988D0E94AA
:1018D0008A2F6D8B7E8B8F8B988FA7019601C70106
:1018E000B6010E9442329B01AC01698D7A8D8B8DCD
:1018F0009C8D0E948A2F698F7A8F8B8F9C8F2D856C
:101900003E854F855889CA01B9010E9442329B0128
:10191000AC016D8D7E8D8F8D98A10E948A2F6D8F69
:101920007E8F8F8F98A329893A894B895C89CA0158
:10193000B9010E9442329B01AC0169A17AA18BA13D
:101940009CA10E948A2F69A37AA38BA39CA3AFEFCB
:10195000B7E41197F1F700C000001F5F7BCF602F45
:1019600070E080E090E00E9453316B017C019B01AC
:10197000AC01C301B2010E946D302B013C016093A8
:101980004001709341018093420190934301A7016C
:101990009601C501B4010E946D304B015C0160935A
:1019A0004401709345018093460190934701A7013C
:1019B00096016D897E898F89988D0E946D306B01AB
:1019C0007C01609348017093490180934A01909390
:1019D0004B0120E030E048E452E4698D7A8D8B8D34
:1019E0009C8D0E946D306D877E878F87988BA301B9
:1019F0009201C301B2010E9442329B01AC016D858C
:101A00007E858F8598890E94892F0E940533609377
:101A10004C0170934D0180934E0190934F0120E053
:101A200030E048E452E46D8D7E8D8F8D98A10E9448
:101A30006D302B013C01A5019401C501B4010E9448
:101A400042329B01AC01C301B2010E94892F0E9466
:101A5000053360935001709351018093520190932C
:101A6000530120E030E048E452E469A17AA18BA15F
:101A70009CA10E946D304B015C01A7019601C7013A
:101A8000B6010E9442329B01AC01C501B4010E9423
:101A9000892F0E9405336093540170935501809300
:101AA000560190935701809159018823C1F0A49663
:101AB0000FB6F894DEBF0FBECDBFDF91CF911F915F
:101AC0000F91FF90EF90DF90CF90BF90AF909F90DD
:101AD0008F907F906F905F904F900C94860DA4969E
:101AE0000FB6F894DEBF0FBECDBFDF91CF911F912F
:101AF0000F91FF90EF90DF90CF90BF90AF909F90AD
:101B00008F907F906F905F904F900895CF92DF926B
:101B1000EF92FF92CF93C82F882309F44CC0809195
:101B20005801811103C082E30E94F40B6C2F70E016
:101B300080E090E00E9453316B017C019B01AC017D
:101B400060914C0170914D0180914E0190914F0137
:101B50000E944232609334017093350180933601C4
:101B600090933701A7019601609150017091510146
:101B700080915201909153010E944232609338014A
:101B80007093390180933A0190933B01A70196012C
:101B900060915401709155018091560190915701C7
:101BA0000E94423260933C0170933D0180933E015C
:101BB00090933F0118C01092340110923501109299
:101BC00036011092370110923801109239011092AB
:101BD0003A0110923B0110923C0110923D0110928B
:101BE0003E0110923F01C0935901CF91FF90EF90B9
:101BF000DF90CF9008956F927F928F929F92AF92D5
:101C0000BF92CF92DF92EF92FF920F931F93CF93E9
:101C1000DF93CDB7DEB72E970FB6F894DEBF0FBEB9
:101C2000CDBFE0917401E0FF3DC0370179016A0149
:101C30005B014C019E012F5F3F4F4EE06BE380ED57
:101C40000E94FE1F89819A81982789279827F4018D
:101C5000918380838B819C81982789279827F50120
:101C6000918380838D819E81982789279827F6010B
:101C70009183808389859A85982789279827F701FA
:101C8000918380838B859C85982789279827F801E5
:101C9000918380838D859E85982789279827F301D6
:101CA000918380832E960FB6F894DEBF0FBECDBF12
:101CB000DF91CF911F910F91FF90EF90DF90CF9028
:101CC000BF90AF909F908F907F906F900895EF920C
:101CD000FF920F931F93E0916E01DC01EC938091D2
:101CE0006F01FB01808380917001DA018C938091F8
:101CF0007101F901808380917201D8018C938091E8
:101D00007301F70180831F910F91FF90EF90089569
:101D1000EF920F93882329F0853608F084E68093AC
:101D20006E01662329F0653608F064E660936F0162
:101D3000442329F0453608F044E6409370012223FD
:101D400029F0253608F024E620937101002329F0BC
:101D5000053608F004E600937201EE2031F08E2D76
:101D6000853608F084E6809373010F91EF90089513
:101D700084E680936E0180936F018093700180935D
:101D8000710180937201809373010895CF93DF9363
:101D9000D82FC62F1092400110924101109242019B
:101DA0001092430110924401109245011092460195
:101DB00010924701109248011092490110924A0175
:101DC00010924B011092580110923401109235017B
:101DD0001092360110923701109238011092390199
:101DE00010923A0110923B0110923C0110923D0179
:101DF00010923E0110923F011092590185E70E9416
:101E0000BF08883669F581E00E945A098D2F0E942B
:101E1000F6088C2F0E94280980E00E94F1080E9499
:101E2000B80E8091740181608093740188E599E314
:101E3000A4E3BCE38093750190937601A0937701AE
:101E4000B093780186EB93EFADE1BFE38093790126
:101E500090937A01A0937B01B0937C0181E001C053
:101E600080E0DF91CF91089580ED0E949A1F81114B
:101E700033C08EEC92E00E942A1362E081E00E945F
:101E8000C60E82EB92E00E942A130E946C092FEF8B
:101E90008FE794E0215080409040E1F700C00000BF
:101EA00082E30E94F40B2FEF8FE794E021508040F3
:101EB0009040E1F700C0000083E00E94860D84E6B8
:101EC00080936E0180936F01809370018093710104
:101ED000809372018093730108958F929F92AF92C5
:101EE000BF92CF92DF92EF92FF92CF93DF938091D8
:101EF000740180FF7DC028ED30E04EE06BE380EDA3
:101F00000E94FE1F40916E0150E0C4E6D0E09E01A9
:101F1000241B350BA0916201B0916301E091D800C0
:101F2000F091D900FE27EF27FE270E943E2F6B017C
:101F30007C019A01DF010E94552F6C0D7D1D8E1DC5
:101F40009F1D24E6C22ED12CE12CF12CA701960175
:101F50000E94192F309363012093620140916F0119
:101F600050E09E01241B350BA0916401B0916501E6
:101F7000E091DA00F091DB00FE27EF27FE270E94B8
:101F80003E2F4B015C019A01DF010E94552F680D25
:101F9000791D8A1D9B1DA70196010E94192F309360
:101FA0006501209364014091700150E09E01241B63
:101FB000350BA0916601B0916701E091DC00F091D2
:101FC000DD00FE27EF27FE270E943E2F4B015C011C
:101FD0009A01DF010E94552F680D791D8A1D9B1DF6
:101FE000A70196010E94192F309367012093660183
:101FF000DF91CF91FF90EF90DF90CF90BF90AF90A7
:102000009F908F9008952F923F924F925F926F9280
:102010007F928F929F92AF92BF92CF92DF92EF9278
:10202000FF920F931F93CF93DF9300D000D000D087
:10203000CDB7DEB75C01FC01E859FF4F60817181CB
:10204000072E000C880B990B0E9453312FE632E1CA
:1020500043E852E40E946D302FE632E143E85AE350
:102060000E944232150129E7220E311CF101208124
:102070003181428153810E948A2F2B013C01F10161
:102080006083718382839383950123583F4F3A8302
:102090002983759760817181072E000C880B990B3D
:1020A0000E9453312FE632E143E852E40E946D3042
:1020B0002FE632E143E85AE30E9442329B01AC0131
:1020C000E981FA8160817181828193810E94892FE7
:1020D0006B017C01E981FA81608371838283938340
:1020E000F501E25AFF4F208131813C832B833296E8
:1020F00060817181329600811181C90137FF03C06F
:102100009195819591099B0177FF04C02227332780
:10211000261B370B280F391FC80117FF04C088275B
:102120009927801B910B820F931F092E000CAA0B7D
:10213000BB0B81509042A109B1098F3F9F45A1057A
:10214000B10508F075C0072E000C880B990B0E9492
:1021500053314B015C01EB81FC81BF01FF0F880B08
:10216000990B0E9453319B01AC01C501B4010E943F
:10217000093020E030E044E353E40E9442322BED8A
:102180003FE049E450E40E946D302AE037ED43EA35
:102190005CE30E9442326B837C838D839E8328E4C0
:1021A00031EE4AE75FE3C301B2010E9442329B0174
:1021B000AC016B817C818D819E810E948A2FF1010F
:1021C0006083718382839383B801110F880B990B0D
:1021D0000E9453319B01AC01C501B4010E9409303A
:1021E00020E030E044E353E40E9442322BED3FE034
:1021F00049E450E40E946D302AE037ED43EA5CE3A5
:102200000E9442324B015C0128E431EE4AE75FE371
:10221000C701B6010E9442329B01AC01C501B40165
:102220000E948A2FE981FA8160837183828393837C
:1022300026960FB6F894DEBF0FBECDBFDF91CF91CB
:102240001F910F91FF90EF90DF90CF90BF90AF90D4
:102250009F908F907F906F905F904F903F902F90C6
:10226000089560917D0170917E0180917F01909130
:1022700080010895CF93DF93CDB7DEB72E970FB6C9
:10228000F894DEBF0FBECDBF8091740180FF42C0C5
:102290009E012F5F3F4F4EE06BE380ED0E94FE1FDB
:1022A00089819A8198278927982790936301809341
:1022B00062018B819C8198278927982790936501DB
:1022C000809364018D819E81982789279827909318
:1022D00067018093660189859A85982789279827C1
:1022E00090936901809368018B859C859827892745
:1022F000982790936B0180936A018D859E8598271E
:102300008927982790936D0180936C0184E091E078
:102310000E9403102E960FB6F894DEBF0FBECDBFFD
:10232000DF91CF9108954F925F926F927F928F923B
:102330009F92AF92BF92CF92DF92EF92FF92409026
:10234000D4005090D5006090D6007090D70028E55A
:1023500039E344EB5CE36091D0007091D10080914F
:10236000D2009091D3000E948A2F6B017C0126EB52
:1023700033EF4DE15FE30E948A2F9B01AC0160E0E7
:1023800070E080E89FE30E946D30A70196010E94F3
:1023900042324B015C016091620170916301072E32
:1023A000000C880B990B0E945331A30192010E94EB
:1023B000892FA50194010E944232A30192010E943B
:1023C0008A2F2B013C01A501940160E070E080E8B8
:1023D0009FE30E94892FA70196010E9442326093D9
:1023E000D0007093D1008093D2009093D30040929C
:1023F000D4005092D5006092D6007092D700FF9022
:10240000EF90DF90CF90BF90AF909F908F907F9094
:102410006F905F904F9008954F925F926F927F926E
:102420008F929F92AF92BF92CF92DF92EF92FF92E4
:10243000CF93DF9300D000D000D0CDB7DEB780902F
:10244000CC009090CD00A090CE00B090CF008091B5
:10245000790190917A01A0917B01B0917C018983EF
:102460009A83AB83BC832091C8003091C90040910E
:10247000CA005091CB00BC01CD010E948A2F6B0194
:102480007C01209175013091760140917701509146
:1024900078010E948A2F9B01AC0160E070E080E827
:1024A0009FE30E946D30A70196010E9442322B01EA
:1024B0003C01A0916201B0916301BE83AD83BD0177
:1024C000BB0F880B990B0E945331A50194010E9408
:1024D000892FA30192010E944232A50194010E941A
:1024E0008A2F4B015C016093CC007093CD008093E8
:1024F000CE009093CF00A301920160E070E080E8ED
:102500009FE30E94892FA70196010E9442326093A7
:10251000C8007093C9008093CA009093CB0020E05C
:1025200030E0A90169817A818B819C810E946830A9
:10253000882331F0C501B4010E941B317E836D8375
:102540008D819E8126960FB6F894DEBF0FBECDBF5B
:10255000DF91CF91FF90EF90DF90CF90BF90AF9041
:102560009F908F907F906F905F904F900895411152
:1025700009C0609375017093760180937701909301
:1025800078010895413041F46093790170937A01A4
:1025900080937B0190937C010895809168019091D4
:1025A0006901089580916A0190916B01089580916D
:1025B0006C0190916D010895809162019091630189
:1025C000089580916401909165010895809166015C
:1025D0009091670108958091740108958CE591E0D0
:1025E0000E942A136AE070E0809162019091630179
:1025F0000E94391389E591E00C942A139093E70027
:102600008093E600089590BD89B988E18AB986E88B
:1026100080BD8AB188698AB90895909185019F5FCC
:102620009F77209187019217E1F3E92FF0E0E857B7
:10263000FE4F808390938501559A0895CF93DF9341
:10264000EC018991882319F00E940D13FACFDF91D4
:10265000CF910895CF93DF93FC018491EF012196F0
:10266000882321F00E940D13FE01F7CFDF91CF9157
:102670000895CF93DF93CDB7DEB761970FB6F89487
:10268000DEBF0FBECDBFAB01BE016F5F7F4F0E94AB
:10269000F234CE0101960E941E1361960FB6F89493
:1026A000DEBF0FBECDBFDF91CF9108959B012150BA
:1026B0003109FC01E60FF71FDC01AD01481B590B86
:1026C000421753073CF44C9152915D934083215043
:1026D0003109F3CF0895EF92FF920F931F93CF9399
:1026E000DF938B019A01FB014AE0E42EF12CEF010C
:1026F000C01BD10B009739F0B7010E94052F805DF8
:102700008193CB01F4CFF801EC0FFD1F80E3C217DA
:10271000D3071CF421968193FACFBE01C8010E9411
:102720005613F801EC0FFD1F1082CE01DF91CF91FF
:102730001F910F91FF90EF9008952F923F924F922B
:102740005F926F927F928F929F92AF92BF92CF9241
:10275000DF92EF92FF920F931F93CF93DF934B0182
:102760005C01EA0189010E941B316B017C0140E0A0
:1027700050E0BE01C6010E946B131C01011511053A
:1027800009F445C0FE01E80FF91F8EE28083B8010D
:10279000012E000C880B990B0E9453319B01AC0158
:1027A00060E070E080E291E40E94AF322B013C01D6
:1027B000B601DD0C880B990B0E9453319B01AC01D3
:1027C000C501B4010E94892F2FEF221A320AC20DCF
:1027D000D31DA30192010E9442320E941B31DC01F1
:1027E000CB01A801BE01DF91CF911F910F91FF9006
:1027F000EF90DF90CF90BF90AF909F908F907F90A1
:102800006F905F904F903F902F900C946B13DF91DF
:10281000CF911F910F91FF90EF90DF90CF90BF90DD
:10282000AF909F908F907F906F905F904F903F9070
:102830002F900895CF93DF93CDB7DEB761970FB692
:10284000F894DEBF0FBECDBF23E030E0AE014F5F96
:102850005F4F0E949D13CE0101960E941E13619648
:102860000FB6F894DEBF0FBECDBFDF91CF910895B4
:102870001F920F920FB60F9211248F939F93EF9395
:10288000FF93C09A9091850180918701981771F00C
:10289000809187018F5F8F7780938701E091870117
:1028A000F0E0E857FE4F80818CB901C05598FF9148
:1028B000EF919F918F910F900FBE0F901F901895E1
:1028C0009091080280910902981771F08091090295
:1028D0008F5F8F7780930902E0910902F0E0E65F55
:1028E000FD4F808190E008958FEF9FEF08950F9343
:1028F0001F93CF93DF938C0180918601882399F0F9
:10290000C02FD12F0E946014181619061CF48D30A8
:10291000910539F418828091860181508093860157
:1029200002C08993EFCFC801DF91CF911F910F9122
:1029300008950F931F93CF93DF9320918601222355
:10294000A9F00091E6001091E7000115110551F082
:10295000EC010E947714CE01F801DF91CF911F9115
:102960000F9109948091090280930802DF91CF9121
:102970001F910F9108951F920F920FB60F9211247D
:102980008F939F93EF93FF93C19A8CB1E0910802CC
:102990008A3091F08D3019F0811106C00DC09091F0
:1029A00086019F5F90938601EF5FEF77E0930802C7
:1029B000F0E0E65FFD4F8083FF91EF919F918F9153
:1029C0000F900FBE0F901F901895CF93C82FF894BB
:1029D00080EC0E94371F8C2F0E94A61FC82F0E94D8
:1029E000861F78948C2FCF9108951F93CF93DF93F8
:1029F000182FEB01F89480EC0E94371F812F880F6D
:102A0000880F880F0E94A61F8D2F0E94A61F8C2F53
:102A10000E94A61F0E94861F789480E0DF91CF91CC
:102A20001F9108950F931F93CF93DF9300D000D091
:102A3000CDB7DEB79E012D5F3F4F42E066E080ECF0
:102A40000E94FE1F0DE912E08B818F709C81892B03
:102A500090E0F801918380839E012D5F3F4F42E01B
:102A60006EE080EC0E94FE1F8B818F709C81892B11
:102A700090E0F8019383828328E932E042E066E443
:102A800080EC0E94FE1F20E932E042E06EE480EC20
:102A90000E94FE1F2EE832E042E066E580EC0E94D4
:102AA000FE1F23EA32E042E06EE580EC0E94FE1F4A
:102AB0009E012F5F3F4F42E066E880EC0E94FE1FC0
:102AC0000AE812E089818F709A81892B90E0F801E1
:102AD000918380839E012F5F3F4F42E06EE880EC40
:102AE0000E94FE1F89818F709A81892B90E0F801E6
:102AF0009383828321EA32E042E066EC80EC0E941C
:102B0000FE1F2AE932E042E06EEC80EC0E94FE1FDC
:102B100024E932E042E066ED80EC0E94FE1F0F9057
:102B20000F900F900F90DF91CF911F910F9108950B
:102B30001F93CF93DF93CDE9D2E0998388837B8382
:102B40006A83BC0180E00E94F514182F6A817B81A2
:102B500081E00E94F514812BDF91CF911F910895A0
:102B6000E8E9F2E040818181482B50E060E480ECAC
:102B70000E94472080E00895EEE8F2E050818181D4
:102B8000582B40E060E580EC0E94472080E00895EB
:102B9000E0E9F2E040818181482B50E068E480EC7C
:102BA0000E94472080E00895E3EAF2E040818181BD
:102BB000482B50E068E580EC0E94472080E00895B3
:102BC000E8E9F2E08083660F660F61830C94B0152C
:102BD000EEE8F2E08083660F61830C94BC15E3EAB3
:102BE000F2E08083660F61830C94D41586E090E058
:102BF0000C94E5148AE090E00C94E514CF92DF92F7
:102C0000EF92FF920F931F93CF93DF93EDE9F2E0E2
:102C1000608171818AE8C82E82E0D82ED601119693
:102C20007C936E938281938113969C938E931297DB
:102C300091EAE92E92E0F92EE8E9F2E08081D701ED
:102C40008C93818111968C9304E912E0EEE8F2E016
:102C50008081D8018C93818111968C93CAE9D2E04E
:102C6000E0E9F2E080818883818189831092960275
:102C700080E10E94F51490919602892B8093960230
:102C8000BFEFEFE7F4E0B150E040F040E1F700C003
:102C90000000D60112966D917C91139781E10E94FC
:102CA000F51490919602892B80939602BFEFEFE77F
:102CB000F4E0B150E040F040E1F700C00000D7017F
:102CC0006C9111968C91682B70E088E10E94F5144C
:102CD00090919602892B80939602BFEFEFE7F4E084
:102CE000B150E040F040E1F700C00000D8017C9115
:102CF00011968C91782B60E08AE10E94F5149091F6
:102D00009602892B80939602BFEFEFE7F4E0B15073
:102D1000E040F040E1F700C0000068818981682B45
:102D200070E089E10E94F51490919602892B8093BE
:102D300096022FEF8FE794E0215080409040E1F71A
:102D400000C0000080919602DF91CF911F910F91FA
:102D5000FF90EF90DF90CF900895EDE9F2E01382BD
:102D6000128211821082E8E9F2E011821082EEE80C
:102D7000F2E011821082E0E9F2E0118210820C94FC
:102D8000FE15E0E9F2E08083660F660F61830C9424
:102D9000C8150E94121560E080E00E94EF1560E007
:102DA00080E00E94E01560E080E00E94C11660E0D3
:102DB00080E00E94E81560E070E080E090E00C9414
:102DC000981580919C020895882339F0813041F450
:102DD000809199028695869508958091980208952C
:102DE000E82FF0E0E856FD4F80810895882331F008
:102DF000813039F480918F028695089580918E02FA
:102E00000895E82FF0E0E257FD4F80810895882370
:102E100039F0813041F4809191028695869508952C
:102E2000809190020895E82FF0E0E057FD4F8081F7
:102E30000895E82FF0E0EE0FFF1FE356FD4F80816D
:102E400091810895882339F0813041F48091A20264
:102E50008695869508958091A1020895E82FF0E067
:102E6000EF55FD4F80810895882331F0813039F48A
:102E70008091950286950895809194020895E82F97
:102E8000F0E0EC56FD4F80810895882339F08130C1
:102E900041F480919B0286958695089580919A02CF
:102EA0000895E82FF0E0E656FD4F80810895E82F61
:102EB000F0E0EE0FFF1FE657FD4F808191810895EE
:102EC00090939302809392020895CF93DF938111A0
:102ED00013C00E94CF19EC010E94CC199FE2899F78
:102EE000C00DD11D11246AE070E089899A890E9481
:102EF00039138CEF92E030C0FA0101900020E9F71D
:102F0000CF0102978417950711F08FEF28C060E674
:102F100070E0CA010E949034FC0120812223A9F3B1
:102F20000E945A34892B89F70E94CF19EC010E9424
:102F3000CC19FFE28F9FC00DD11D11241A8A198A66
:102F400087EF92E00E942A136AE070E080E090E050
:102F50000E94391384EF92E00E942A1380E0DF91EF
:102F6000CF9108950F931F93CF93DF93D62F8111A5
:102F70001CC00E94CF198C010E94CC196D2F70E0EB
:102F8000625F7F4F660F771F9FE2899F600D711D03
:102F90001124E801C60FD71F6AE070E089819A8189
:102FA0000E94391381EF92E042C0FA0101900020A3
:102FB000E9F7CF0102978417950711F08FEF3AC018
:102FC00060E670E0CA010E949034FC012081222357
:102FD000A9F30E945A34892B89F70E94CF198C01DA
:102FE0000E94CC19CD2FD0E09E01225F3F4F220FCF
:102FF000331FFFE28F9F200D311D1124F801E20FD6
:10300000F31F128211828CEE92E00E942A136AE072
:1030100070E0CE010E9439138DE30E940D136AE027
:1030200070E080E090E00E94391389EE92E00E9407
:103030002A1380E0DF91CF911F910F910895DF92C5
:10304000EF92FF920F931F93CF93DF9300D0CDB7F2
:10305000DEB7D82E8A016AE370E0CA010E94A83464
:10306000AE014F5F5F4F892B19F062E670E002C03E
:1030700064E670E0C8010E94CB34FC01019000209E
:10308000E9F73197E980FA808C012D2D4FEF52E05E
:1030900062E03E2F381B832F0E94182B80E00F9098
:1030A0000F90DF91CF911F910F91FF90EF90DF90E4
:1030B00008950F931F93CF93DF93811113C00E9444
:1030C000CF19EC010E94CC199FE2899FC00DD11D40
:1030D00011246AE070E08D819E810E94391385E39E
:1030E00093E02EC0FA0101900020E9F7CF0102978A
:1030F0008417950711F08FEF26C060E670E0CA01D3
:103100000E949034FC0120812223A9F30E945A34AA
:103110008C010E94CF19EC010E94CC19FFE28F9F15
:10312000C00DD11D11241E830D838FE293E00E94F8
:103130002A136AE070E0C8010E9439138CE293E020
:103140000E942A1380E0DF91CF911F910F91089583
:103150000F931F93CF93DF93811113C00E94CF1958
:10316000EC010E94CC199FE2899FC00DD11D112452
:103170006AE070E08F8198850E94391389E293E0BC
:103180002EC0FA0101900020E9F7CF0102978417C1
:10319000950711F08FEF26C060E670E0CA010E942B
:1031A0009034FC0120812223A9F30E945A348C011F
:1031B0000E94CF19EC010E94CC19FFE28F9FC00D35
:1031C000D11D112418870F8383E293E00E942A13F4
:1031D0006AE070E0C8010E94391380E293E00E9427
:1031E0002A1380E0DF91CF911F910F910895CF9323
:1031F000DF93811116C00E94CF19EC010E94CC19F7
:103200009FE2899FC00DD11D11246AE070E089857D
:103210009A850E9439138DE193E00E942A1380E081
:1032200001C081E0DF91CF910895DF92EF92FF928C
:103230000F931F93CF93DF9300D0CDB7DEB7D82E77
:103240008A016AE370E0CA010E94A834AE014F5FB0
:103250005F4F892B19F062E670E002C064E670E00F
:10326000C8010E94CB34FC0101900020E9F731979E
:10327000E980FA808C012D2D48E353E063E03E2F76
:10328000381B832F0E94182B80E00F900F90DF9146
:10329000CF911F910F91FF90EF90DF900895CF9302
:1032A000DF93EA0166E670E0CA010E949534892B3B
:1032B00019F41092A50225C06CE670E0CE010E94C0
:1032C0009534892B11F481E01AC062E770E0CE01D9
:1032D0000E949534892B11F482E011C064E770E0FC
:1032E000CE010E949534892B11F483E008C067E772
:1032F00070E0CE010E949534892B19F484E080930C
:10330000A50285E793E00E942A138091A5026AE056
:1033100070E090E00E94391382E793E00E942A1344
:1033200080E0DF91CF910895CF93FA0101900020C2
:10333000E9F7CF0102978417950711F08FEF1FC0AF
:10334000CA0160E670E00E949034FC0120812223D3
:10335000A9F30E945A34C82F853080F78BE693E09A
:103360000E942A136AE070E08C2F90E00E943913CB
:1033700088E693E00E942A13C093A50280E0CF91D3
:1033800008951092A5020895853020F48093A50237
:1033900080E0089581E008958091A502089585EA6E
:1033A00092E00895E091A5028FE2E89FF0011124D8
:1033B000EB55FD4F618380E0089580E00895EF9222
:1033C000FF920F931F93CF93DF9300D0CDB7DEB75B
:1033D000982F8A0181110CC08091A5026AE070E0EB
:1033E00090E00E94391385E693E00E942A1329C0D9
:1033F000813021F56AE370E0CA010E94A834AE0171
:103400004F5F5F4F892B19F062E670E002C064E6FF
:1034100070E0C8010E94CB34FC0101900020E9F764
:103420003197E980FA808C0121E04BE753E062E0BC
:103430003E2F381B832F0E94182B03C081E092304F
:1034400009F080E00F900F90DF91CF911F910F91C5
:10345000FF90EF9008950F931F93CF93DF93811107
:1034600013C00E94CF19EC010E94CC199FE2899FE2
:10347000C00DD11D11246AE070E08AA59BA50E94B1
:1034800039138AEB93E02EC0FA0101900020E9F78E
:10349000CF0102978417950711F08FEF26C060E6E1
:1034A00070E0CA010E949034FC0120812223A9F31C
:1034B0000E945A348C010E94CF19EC010E94CC1951
:1034C000FFE28F9FC00DD11D11241BA70AA784EB1B
:1034D00093E00E942A136AE070E0C8010E94391349
:1034E00081EB93E00E942A1380E0DF91CF911F913E
:1034F0000F9108950F931F93CF93DF93811113C002
:103500000E94CF19EC010E94CC199FE2899FC00D47
:10351000D11D11246AE070E08CA59DA50E9439138D
:103520008EEA93E02EC0FA0101900020E9F7CF0166
:1035300002978417950711F08FEF26C060E670E0C0
:10354000CA010E949034FC0120812223A9F30E9429
:103550005A348C010E94CF19EC010E94CC19FFE271
:103560008F9FC00DD11D11241DA70CA788EA93E0E1
:103570000E942A136AE070E0C8010E94391385EAAC
:1035800093E00E942A1380E0DF91CF911F910F9169
:1035900008950F931F93CF93DF93811113C00E945F
:1035A000CF19EC010E94CC199FE2899FC00DD11D5B
:1035B00011246AE070E08EA59FA50E94391382EA6B
:1035C00093E02EC0FA0101900020E9F7CF010297A5
:1035D0008417950711F08FEF26C060E670E0CA01EE
:1035E0000E949034FC0120812223A9F30E945A34C6
:1035F0008C010E94CF19EC010E94CC19FFE28F9F31
:10360000C00DD11D11241FA70EA78CE993E00E94C5
:103610002A136AE070E0C8010E94391389E993E037
:103620000E942A1380E0DF91CF911F910F9108959E
:10363000DF92EF92FF920F931F93CF93DF9300D00F
:10364000CDB7DEB7D82E8A016AE370E0CA010E94C6
:10365000A834AE014F5F5F4F892B19F062E670E02E
:1036600002C064E670E0C8010E94CB34FC01019006
:103670000020E9F73197E980FA808C012D2D4DEB80
:1036800053E064E03E2F381B832F0E94182B80E00C
:103690000F900F90DF91CF911F910F91FF90EF90BE
:1036A000DF9008950F931F93CF93DF93EA01811169
:1036B00013C00E94CF19EC010E94CC199FE2899F90
:1036C000C00DD11D112489816AE070E090E00E9454
:1036D000391384E394E069C06BE770E0CA010E948B
:1036E0009534892B09F448C06FE770E0CE010E9441
:1036F0009534892B99F163E870E0CE010E949534EE
:10370000892B71F167E870E0CE010E949534892B16
:1037100049F16BE870E0CE010E949534892B21F1CC
:103720006EE870E0CE010E949534892BF9F061E9D2
:1037300070E0CE010E949534892BD1F066E970E0EB
:10374000CE010E949534892BA9F06BE970E0CE017F
:103750000E949534892B81F4C8E00FC0C1E00DC0F0
:10376000C2E00BC0C3E009C0C4E007C0C5E005C0AB
:10377000C6E003C0C7E001C0C0E00E94CF198C01C1
:103780000E94CC19F8019FE2899FE00DF11D1124E0
:10379000C1838EE294E00E942A136AE070E08C2FCD
:1037A00090E00E9439138BE294E00E942A1380E09B
:1037B000DF91CF911F910F9108950F931F93CF9396
:1037C000DF93EA01811113C00E94CF19EC010E941E
:1037D000CC199FE2899FC00DD11D11248A816AE016
:1037E00070E090E00E94391388E194E060C06FE9D6
:1037F00070E0CA010E949534892B09F43FC062EA47
:1038000070E0CE010E949534892B61F16BE870E085
:10381000CE010E949534892B39F16EE870E0CE011B
:103820000E949534892B11F165EA70E0CE010E9467
:103830009534892BE9F061E970E0CE010E9495345E
:10384000892BC1F066E970E0CE010E949534892B86
:1038500099F06BE970E0CE010E949534892B71F4E8
:10386000C7E00DC0C1E00BC0C2E009C0C3E007C0A3
:10387000C4E005C0C5E003C0C6E001C0C0E00E94CE
:10388000CF198C010E94CC19F8019FE2899FE00DAD
:10389000F11D1124C28382E194E00E942A136AE0A0
:1038A00070E08C2F90E00E9439138FE094E00E942A
:1038B0002A1380E0DF91CF911F910F910895CF934C
:1038C000DF93811116C00E94CF19EC010E94CC1920
:1038D0009FE2899FC00DD11D11248B816AE070E0A9
:1038E00090E00E9439138BE194E00E942A1380E05B
:1038F00001C081E0DF91CF910895CF93DF938111D3
:1039000016C00E94CF19EC010E94CC199FE2899F3A
:10391000C00DD11D11248C816AE070E090E00E94FE
:1039200039138FEF93E00E942A1380E001C081E0F9
:10393000DF91CF910895EF92FF921F93CF93DF9382
:10394000811115C00E94CF19EC010E94CC199FE291
:10395000899FC00DD11D112489816AE070E090E03B
:103960000E94391388E294E00E942A1349C0FA01A8
:1039700001900020E9F7CF0102978417950711F015
:103980008FEF3FC060E670E0CA010E949034FC01F6
:1039900020812223A9F30E945A34C82F0E94CF19F4
:1039A0007C010E94CC191FE2F701189FE00DF11D68
:1039B0001124C18381E294E00E942A136AE070E03E
:1039C0008C2F90E00E9439138EE194E00E942A131C
:1039D000C43058F40E94CF19EC010E94CC19189FF2
:1039E000C00DD11D11241B820BC00E94CF19EC0108
:1039F0000E94CC19189FC00DD11D112481E08B832A
:103A000080E0DF91CF911F91FF90EF900895EF92AA
:103A1000FF921F93CF93DF93811115C00E94CF199E
:103A2000EC010E94CC199FE2899FC00DD11D112489
:103A30008A816AE070E090E00E9439138CE094E0A3
:103A40000E942A1349C0FA0101900020E9F7CF0132
:103A500002978417950711F08FEF3FC060E670E082
:103A6000CA010E949034FC0120812223A9F30E9404
:103A70005A34C82F0E94CF197C010E94CC191FE232
:103A8000F701189FE00DF11D1124C28385E094E039
:103A90000E942A136AE070E08C2F90E00E94391394
:103AA00082E094E00E942A13C23058F40E94CF1999
:103AB000EC010E94CC19189FC00DD11D11241C824D
:103AC0000BC00E94CF19EC010E94CC19189FC00DA9
:103AD000D11D112481E08C8380E0DF91CF911F9173
:103AE000FF90EF900895DF92EF92FF920F931F9354
:103AF000CF93DF9300D0CDB7DEB7D82E8A016AE32B
:103B000070E0CA010E94A834AE014F5F5F4F892B5D
:103B100019F062E670E002C064E670E0C8010E943D
:103B2000CB34FC0101900020E9F73197E980FA805D
:103B30008C012D2D42E854E063E03E2F381B832F8B
:103B40000E94182B80E00F900F90DF91CF911F9172
:103B50000F91FF90EF90DF900895CF93DF93811145
:103B600015C00E94CF19EC010E94CC199FE2899FD9
:103B7000C00DD11D112489816AE070E090E00E949F
:103B800039138CEF93E00E942A1302C00E94731D28
:103B900080E0DF91CF910895DF92EF92FF920F9333
:103BA0001F93CF93DF9300D0CDB7DEB7D82E8A0115
:103BB0006AE370E0CA010E94A834AE014F5F5F4F14
:103BC000892B19F062E670E002C064E670E0C8017B
:103BD0000E94CB34FC0101900020E9F73197E98085
:103BE000FA808C012D2D45E554E063E03E2F381B13
:103BF000832F0E94182B80E00F900F90DF91CF91C0
:103C00001F910F91FF90EF90DF900895CF93DF9376
:103C1000811115C00E94CF19EC010E94CC199FE2BE
:103C2000899FC00DD11D11248A816AE070E090E067
:103C30000E94391389EF93E00E942A1302C00E9468
:103C4000CC1D80E0DF91CF910895DF92EF92FF923B
:103C50000F931F93CF93DF9300D0CDB7DEB7D82E4D
:103C60008A016AE370E0CA010E94A834AE014F5F86
:103C70005F4F892B19F062E670E002C064E670E0E5
:103C8000C8010E94CB34FC0101900020E9F7319774
:103C9000E980FA808C012D2D47E354E062E03E2F4D
:103CA000381B832F0E94182B80E00F900F90DF911C
:103CB000CF911F910F91FF90EF90DF9008958111A8
:103CC00004C08FEA94E00E942A1380E00895CF9305
:103CD000DF93811116C00E94CF19EC010E94CC190C
:103CE0009FE2899FC00DD11D11246AE070E08B8591
:103CF0009C850E94391388EB94E00E942A1380E08F
:103D000001C081E0DF91CF910895CF93DF938111BE
:103D100016C00E94CF19EC010E94CC199FE2899F26
:103D2000C00DD11D11246AE070E08D859E850E9432
:103D3000391385EB94E00E942A1380E001C081E0F2
:103D4000DF91CF910895CF93DF93811116C00E9428
:103D5000CF19EC010E94CC199FE2899FC00DD11DA3
:103D600011246AE070E08F8598890E94391382EBF4
:103D700094E00E942A1380E001C081E0DF91CF919E
:103D80000895DF92EF92FF920F931F93CF93DF93EB
:103D900000D0CDB7DEB7D82E8A016AE370E0CA0141
:103DA0000E94A834AE014F5F5F4F892B19F062E685
:103DB00070E002C064E670E0C8010E94CB34FC01F0
:103DC00001900020E9F73197E980FA808C012D2DD0
:103DD0004BEB54E064E03E2F381B832F0E94182BDE
:103DE00080E00F900F90DF91CF911F910F91FF9086
:103DF000EF90DF900895BC0189E999E30E94F12ECC
:103E0000862F603138F07727CB01409797FD0196D8
:103E10009595879580B9089584B3836084BB85B3F5
:103E2000836085BB8AE080B9089586B7846A86BFBF
:103E300080E090E006B607FC13C0019625E02A95C5
:103E4000F1F721B1287F2830A9F3811520E19207ED
:103E500088F384E986BF06B607FEFDCF8FEF08958D
:103E600084E986BF06B607FEFDCF80E0089516BE42
:103E700094EA96BF94E606B607FC07C0992339F08A
:103E8000915025E02A95F1F7F6CF911106C085E112
:103E900095E00E942A1382E0089591B1987F9830AE
:103EA00011F081E0089583B984E886BF84E606B600
:103EB00007FC07C0882339F0815095E09A95F1F707
:103EC000F6CF811106C08FE095E00E942A1383E0AF
:103ED000089581B1887F883111F0803411F780E036
:103EE000089586B7846A86BF84E606B607FC07C0D5
:103EF000882339F0815095E09A95F1F7F6CF81113A
:103F000004C089E095E00C942A13089584E986BFE3
:103F100084E606B604FC07C0882339F0815095E09A
:103F20009A95F1F7F6CF811104C083E095E00C94E7
:103F30002A1308950E94371F882321F00E94861FAC
:103F400081E008950E94861F80E0089583B984E887
:103F500086BF84E606B607FC07C0882339F0815087
:103F600095E09A95F1F7F6CF811106C08DEF94E0B8
:103F70000E942A1383E0089591B1987F81E09832DE
:103F800009F480E00895811102C084E801C084EC46
:103F900086BF84E606B607FC07C0882339F0815047
:103FA00095E09A95F1F7F6CF811106C087EF94E07E
:103FB0000E942A1383E0089583B10895FF920F931E
:103FC0001F93CF93DF93162FC42FF22ED32F0E946F
:103FD000371F812F0E94A61F0F2D1D2FCC2339F0D4
:103FE000F80181918F010E94A61FC150F7CFDF9188
:103FF000CF911F910F91FF900C94861FFF920F930A
:104000001F93CF93DF93182F062FC42FF22ED32F99
:104010000E94371F802F0E94A61F0E94711F81E0FF
:10402000810F0E94A61FC1500F2D1D2FCF3F59F0A9
:1040300081E0C11101C080E00E94C31FF80181939B
:104040008F01C150F3CFDF91CF911F910F91FF905E
:104050000C94861F0F931F93CF93DF93C82FD62FF7
:104060008A010E94371F8D2F0E94A61F0E94711F78
:1040700081E08C0F0E94A61F80E00E94C31FF80100
:104080008083DF91CF911F910F910C94861F1F9316
:10409000CF93DF93162FEA010E94371F812F0E94D2
:1040A000A61F8D2F0E94A61F8C2F0E94A61FDF9196
:1040B000CF911F910C94861FCF93DF93D62FC42FDF
:1040C0000E94371F8D2F0E94A61F8C2F0E94A61FB3
:1040D000DF91CF910C94861F4F925F926F927F92E7
:1040E0008F929F92AF92BF92CF92DF92EF92FF9208
:1040F0000F931F93CF93DF9300D000D0CDB7DEB7DF
:1041000029013A01E982FA820B831C830E94892FDC
:104110000E941B319B01AC01D501AC19BD090E9465
:104120005C2F0E9453314B015C01A3019201C80135
:10413000B7010E94892F9B01AC01C501B4010E9407
:104140006D302B013C01B60180E090E00E945131BE
:104150009B01AC01C301B2010E948A2F0E941B3156
:104160000F900F900F900F90DF91CF911F910F91B3
:10417000FF90EF90DF90CF90BF90AF909F908F9087
:104180007F906F905F904F9008959B01AC012859EC
:104190003D4B4F4F5F4FA0E4B6E00E945C2F28EBF1
:1041A00038E840E050E00E94192FCA01B901605D73
:1041B0007D4F8F4F9F4F0895E1E9F3E080E090E05D
:1041C000A8ECB2E4828B938BA48BB58B80E090E05B
:1041D000A6E9B3E4868B978BA08FB18F8CEB92E02E
:1041E0009093DB038093DA0388E998E09093DD03F2
:1041F0008093DC030895823080F4909191039E7F38
:10420000982B90939103811102C01092DE0384EFEA
:1042100091E00E9449080C94DC200895E1E9F3E064
:1042200080818E7F80830895EFEDF3E0808181604F
:1042300080830895EFEDF3E080818E7F8083089581
:104240008091D8039091D90308958091260490918C
:10425000270408950E940E210C941A21823010F434
:104260008093DE030895BC0180E090E00E9451310C
:104270006093A3037093A4038093A5039093A60374
:104280000895BC0180E090E00E9451316093A70343
:104290007093A8038093A9039093AA030895909321
:1042A000DB038093DA0308959093DD038093DC03AE
:1042B0000895609392037093930380939403909373
:1042C00095030895609396037093970380939803E2
:1042D00090939903089560939A0370939B0380933E
:1042E0009C0390939D0308959093AC038093AB033C
:1042F0000895CF93DF93C1E9D3E06E857F858889E8
:1043000099890E941B3170932E0460932D0482EBD7
:1043100095E00E942A136AE070E080912D0490914C
:104320002E040E9439138EEA95E00E942A136981B7
:104330007A818B819C810E941B31DC01CB016AE078
:1043400070E00E9439138CE20E940D136A8D7B8D00
:10435000072E000C880B990B0E9453312E853F8548
:10436000488959890E94892F0E941B31DC01CB01A9
:104370006AE070E00E9439138AEA95E00E942A13ED
:104380006D817E818F8198850E941B31DC01CB017C
:104390006AE070E00E9439138CE20E940D136CAD4C
:1043A0007DAD8EAD9FAD0E941B31DC01CB016AE07B
:1043B00070E00E94391386EA95E00E942A1369850D
:1043C0007A858B859C850E941B31DC01CB016AE0DC
:1043D00070E00E9439138CE20E940D136091D103AA
:1043E0007091D2038091D3039091D4030E941B312A
:1043F000DC01CB016AE070E00E9439138FE995E09F
:104400000E942A136A897B898C899D890E941B31AD
:10441000DC01CB016AE070E00E94391388E995E085
:104420000E942A136E897F89888D998D0E941B3185
:10443000DC01CB016AE070E00E94391381E995E06C
:104440000E942A136AE070E08091D8039091D9030A
:104450000E9439138EE895E0DF91CF910C942A13D6
:104460004F925F926F927F928F929F92AF92BF9284
:10447000CF92DF92EF92FF92CF93DF936B017C019B
:10448000C1E9D3E06E857F85888999890E941B31B7
:1044900070932E0460932D048BE895E00E942A13FC
:1044A0006AE070E08A8D9B8D0E94391387E895E061
:1044B0000E942A136E857F85888999890E941B3105
:1044C000DC01CB016AE070E00E9439138EE795E0D1
:1044D0000E942A136E857F85888999890E941B31E5
:1044E000DC01CB016AE070E00E9439138AE795E0B5
:1044F0000E942A136A8D7B8D072E000C880B990B66
:104500000E9453312E853F85488959890E94892F01
:104510000E941B310E94533129813A814B815C8179
:104520000E9442320E94DF30290128EE33E0429E91
:10453000C001439E900D529E900D11246AE070E0E0
:104540000E94391386E795E00E942A1320E030E0AC
:104550004AE754E46CAD7DAD8EAD9FAD0E94423212
:104560000E941B31DC01CB016AE070E00E9439132C
:1045700082E795E00E942A1320E030E44CE156E403
:104580006091D1037091D2038091D3039091D403B1
:104590000E9442320E941B31DC01CB016AE070E0D4
:1045A0000E9439138CE695E00E942A136AE070E0BD
:1045B000C6010E94391385E695E00E942A130E94E5
:1045C00031086AE070E00E94391382E695E0DF91DD
:1045D000CF91FF90EF90DF90CF90BF90AF909F90E2
:1045E0008F907F906F905F904F900C942A132F9232
:1045F0003F924F925F926F927F928F929F92AF9273
:10460000BF92CF92DF92EF92FF920F931F93CF93BF
:10461000DF931F92CDB7DEB70E942A081982BE0130
:104620006F5F7F4F89EE90E00E940D2D6091E90051
:104630007091EA0080E090E00E94513160939F0306
:104640007093A0038093A1039093A20380919103A0
:1046500080FF01C10E94250881110BC08091E800F4
:10466000843620F48F5F8093E80007C10E94DE0744
:1046700004C1C0909F03D090A003E090A103F090EC
:10468000A2036091D5037091D603072E000C880B0E
:10469000990B0E945331A70196010E94892F209106
:1046A0009A0330919B0340919C0350919D030E947B
:1046B00042324B015C016093D1037093D20380932B
:1046C000D3039093D403C701B6010E941B317093AA
:1046D000D6036093D5036091AB037091AC03072EB2
:1046E000000C880B990B0E945331A70196010E9480
:1046F000892F2B013C01C0909603D0909703E09046
:104700009803F090990320E030E0A901C701B601B9
:104710000E9468308823D9F0A7019601C301B20135
:104720000E946D309B01AC016091CD037091CE036E
:104730008091CF039091D0030E948A2F6093CD0384
:104740007093CE038093CF039093D00308C0109250
:10475000CD031092CE031092CF031092D00320907D
:10476000DC033090DD030091DA031091DB03C0908D
:10477000A303D090A403E090A503F090A60320919A
:104780009203309193034091940350919503C30198
:10479000B2010E944232A50194010E948A2F209109
:1047A000CD033091CE034091CF035091D0030E94AE
:1047B0008A2FA70196010E94892F0E941B319B011D
:1047C000AC01D101A01BB10B0E945C2F0E945331A0
:1047D0004B015C01A70196016091A7037091A803AA
:1047E0008091A9039091AA030E94892F9B01AC019B
:1047F000C501B4010E946D304B015C016801E12CE0
:10480000F12CC701B6010E9451319B01AC01C501D9
:10481000B4010E948A2F0E941B314B015C01D70119
:10482000C60188169906AA06BB0654F0C101A0E08D
:10483000B0E088169906AA06BB0614F4D501C40197
:104840009093D9038093D8030E944908C501B4010D
:104850000E94302212C01092D1031092D203109203
:10486000D3031092D4031092CD031092CE03109272
:10487000CF031092D0031092E8008091DE038823CA
:1048800029F060E070E0CB010E9430220F90DF91B0
:10489000CF911F910F91FF90EF90DF90CF90BF903D
:1048A000AF909F908F907F906F905F904F903F90D0
:1048B0002F900895EF92FF920F931F93CF93DF9362
:1048C0001F92CDB7DEB784E595E00E942A138FE4EE
:1048D00095E00E942A1301E913E06AE070E0F80114
:1048E000828D938D0E94391389E495E00E942A13EA
:1048F000F80162897389848995890E941B31DC01E2
:10490000CB016AE070E00E94391383E495E00E94D5
:104910002A13F80166897789808D918D0E941B3159
:10492000DC01CB016AE070E00E9439138DE395E071
:104930000E942A136AE070E08091DA039091DB0311
:104940000E94391387E395E00E942A136AE070E021
:104950008091DC039091DD030E94391383E395E09D
:104960000E942A13F80161817281838194810E94DF
:104970001B31DC01CB016AE070E00E9439138FE249
:1049800095E00E942A13F8016581768187819085E0
:104990000E941B31DC01CB016AE070E00E943913F8
:1049A0008BE295E00E942A13F80161857285838568
:1049B00094850E941B31DC01CB016AE070E00E940B
:1049C000391385E295E00E942A131982E12CF12C1B
:1049D00000E010E020E030E040E050E060E070E017
:1049E000CE0101960E94670E89816AE070E090E036
:1049F0000E9439138EE195E00E942A136AE070E06C
:104A00008091D8039091D9030E9439138BE195E0EE
:104A10000E942A130F90DF91CF911F910F91FF9069
:104A2000EF900895CF93DF93FC012081211102C004
:104A30008FEF17C0EC0160E670E00E949034FC013B
:104A400080818823A9F3CE010E945A348F3F9105BB
:104A500009F070F787708093ED0081E08093EE009D
:104A600080E0DF91CF910895CF93DF93FC01208107
:104A7000211102C08FEF1AC0EC0160E670E00E94C5
:104A80009034FC0180818823A9F3CE010E945A341E
:104A9000EC018115944070F780E00E941917BE0167
:104AA0000E94981581E08093EE0080E0DF91CF9125
:104AB0000895CF93DF93FC012081211102C08FEF75
:104AC0001BC0EC0160E670E00E949034FC01808124
:104AD0008823A9F3CE010E945A34EC018115944039
:104AE00070F781E00E941917BC01CE010E94981551
:104AF00081E08093EE0080E0DF91CF910895CF9325
:104B0000DF93FC012081211102C08FEF28C0EC014E
:104B100060E670E00E949034FC0180818823A9F354
:104B2000CE010E945A34EC018115944070F760E682
:104B300070E080E090E00E949034FC01208122230C
:104B400021F30E945A348115F4E09F07F0F6BC016E
:104B5000CE010E94981581E08093EE0080E0DF9105
:104B6000CF9108950F931F93CF93DF93FC01208182
:104B7000211102C08FEF3BC0EC0160E670E00E94A3
:104B80009034FC0180818823A9F3CE010E945A341D
:104B9000EC018115944070F760E670E080E090E0F1
:104BA0000E949034FC012081222321F30E945A3478
:104BB0008C0181159440F0F660E670E080E090E0B2
:104BC0000E949034FC0120812223A1F20E945A34D9
:104BD0008F3F910509F070F687708093ED00B80162
:104BE000CE010E94981581E08093EE0080E0DF9175
:104BF000CF911F910F910895CF93DF93FC012081F6
:104C0000211102C08FEF1FC0EC0160E670E00E942E
:104C10009034FC0180818823A9F3CE010E945A348C
:104C2000C82F823078F70E94FB2083E797E00E942C
:104C30002A136AE070E08C2F90E00E9439138DE017
:104C40000E940D1380E0DF91CF910895CF93DF9301
:104C5000FC012081211102C08FEF1CC0EC0160E635
:104C600070E00E949034FC0180818823A9F3CE017A
:104C70000E945A34EC010E9433218CE597E00E9497
:104C80002A136AE070E0CE010E9439138DE00E9481
:104C90000D1380E0DF91CF910895CF93DF93FC0156
:104CA0002081211102C08FEF1CC0EC0160E670E092
:104CB0000E949034FC0180818823A9F3CE010E94D8
:104CC0005A34EC010E94412185E497E00E942A13A6
:104CD0006AE070E0CE010E9439138DE00E940D134E
:104CE00080E0DF91CF910895CF93DF93FC01208185
:104CF000211102C08FEF1CC0EC0160E670E00E9441
:104D00009034FC0180818823A9F3CE010E945A349B
:104D1000EC010E944F218DE297E00E942A136AE085
:104D200070E0CE010E9439138DE00E940D1380E0E7
:104D3000DF91CF910895CF93DF93FC012081211162
:104D400002C08FEF1EC0EC0160E670E00E9490345C
:104D5000FC0180818823A9F3CE010E945A34EC0122
:104D60000E94542185E197E00E942A13BE0180E051
:104D700090E00E9451310E941A148DE00E940D13A0
:104D800080E0DF91CF910895CF92DF92EF92FF9272
:104D9000CF93DF93FC012081211102C08FEF1CC053
:104DA000EC0160E670E00E949034FC018081882371
:104DB000A9F3CE010E9456346B017C010E94592157
:104DC00082E097E00E942A13C701B6010E941A14DC
:104DD0008DE00E940D1380E0DF91CF91FF90EF9066
:104DE000DF90CF900895CF92DF92EF92FF92CF9312
:104DF000DF93FC012081211102C08FEF1CC0EC0168
:104E000060E670E00E949034FC0180818823A9F361
:104E1000CE010E9456346B017C010E9462218FEE0C
:104E200096E00E942A13C701B6010E941A148DE071
:104E30000E940D1380E0DF91CF91FF90EF90DF9003
:104E4000CF900895CF92DF92EF92FF92CF93DF93AE
:104E5000FC012081211102C08FEF22C0EC0160E62D
:104E600070E00E949034FC0180818823A9F3CE0178
:104E70000E9456346B017C010E946B218CED96E000
:104E80000E942A13C701B6010E941B31DC01CB012D
:104E90006AE070E00E9439138DE00E940D1380E0FB
:104EA000DF91CF91FF90EF90DF90CF900895CF9357
:104EB000DF93FC012081211102C08FEF1CC0EC01A7
:104EC00060E670E00E949034FC0180818823A9F3A1
:104ED000CE010E945A34EC010E94742183EC96E0CA
:104EE0000E942A136AE070E0CE010E9439138DE01F
:104EF0000E940D1380E0DF91CF910895CF93DF934F
:104F0000FC012081211102C08FEF1CC0EC0160E682
:104F100070E00E949034FC0180818823A9F3CE01C7
:104F20000E945A34EC010E94F40B81EA96E00E9440
:104F30002A136AE070E0CE010E9439138DE00E94CE
:104F40000D1380E0DF91CF910895EF920F93CF93EF
:104F5000DF93FC012081211102C08FEF21C0EC0101
:104F600060E670E00E949034FC0180818823A9F300
:104F7000CE010E945A34EC01E12C00E020E0482FE1
:104F8000682F0E94880E8CE896E00E942A136AE03F
:104F900070E0CE010E9439138DE00E940D1380E075
:104FA000DF91CF910F91EF900895CF93DF93FC01A4
:104FB0002081211102C08FEF1CC0EC0160E670E07F
:104FC0000E949034FC0180818823A9F3CE010E94C5
:104FD0005A34EC010E94490886E696E00E942A13A2
:104FE0006AE070E0CE010E9439138DE00E940D133B
:104FF00080E0DF91CF9108950E94DE0780E0089560
:10500000CF93DF93FC012081211102C08FEF21C0DB
:10501000EC0160E670E00E949034FC0180818823FE
:10502000A9F3CE010E945A34EC01019719F40E94B1
:10503000DE0702C00E94360880E596E00E942A132F
:105040006AE070E0CE010E9439138DE00E940D13DA
:1050500080E0DF91CF910895FC012081211102C0F1
:105060008FEF089560E670E00E949034FC0180812B
:105070008823B1F30E94EE1280E008951F93CF932E
:10508000DF931F92CDB7DEB7FC012081211102C052
:105090008FEF3FC060E670E00E949034FC012081F9
:1050A0002223B1F30E945A34182F60E670E080E0AA
:1050B00090E00E949034FC012081222349F32F3399
:1050C000F9F4AE014F5F5F4F612F80ED0E942A20FF
:1050D00083E396E00E942A1360E170E0812F90E064
:1050E0000E94391389E296E00E942A13898160E1C7
:1050F00070E090E00E9439138DE00E940D1308C00B
:105100000E945A348983482F612F80ED0E945C20D1
:1051100080E00F90DF91CF911F910895CF92DF92A1
:10512000EF92FF92CF93DF93FC012081211102C007
:105130008FEF1DC0EC0160E670E00E949034FC012E
:1051400080818823A9F3CE010E9456346B017C0133
:1051500040E00E94B71283E196E00E942A13C70143
:10516000B6010E941A148DE00E940D1380E0DF91B9
:10517000CF91FF90EF90DF90CF900895CF92DF9284
:10518000EF92FF92CF93DF93FC012081211102C0A7
:105190008FEF1DC0EC0160E670E00E949034FC01CE
:1051A00080818823A9F3CE010E9456346B017C01D3
:1051B00041E00E94B7128DEF95E00E942A13C701CB
:1051C000B6010E941A148DE00E940D1380E0DF9159
:1051D000CF91FF90EF90DF90CF9008950E945A24D6
:1051E00080E008951F93CF93DF93009721F481E02F
:1051F0008093EC004AC0FC012081211102C08FEF96
:1052000045C0EC0160E670E00E949034FC018081B2
:105210008823A9F3CE010E945A34182FC82FD92F02
:10522000C430D10560F760E670E080E090E00E9455
:105230009034FC012081222311F30E945A348430DF
:105240009105E8F61093EC008093EB0081E08093E9
:10525000EF002397D1F486E897E00E942A1380910B
:10526000EC006AE070E090E00E94391384E897E077
:105270000E942A138091EB006AE070E090E00E94A7
:10528000391381E897E00E942A1380E0DF91CF91E3
:105290001F910895CF93DF93FC012081211102C05B
:1052A0008FEF11C0EC0160E670E00E949034FC01C9
:1052B00080818823A9F3CE010E945A34823080F77E
:1052C0000E94FB2080E0DF91CF9108959F92AF92E2
:1052D000BF92CF92DF92EF92FF920F931F93CF93E3
:1052E000DF9300D0CDB7DEB76C0147E050E0BC01E2
:1052F00089EA90E00E94B334892B51F4F89498E045
:1053000088E10FB6F894A89581BD0FBE91BDFFCF7F
:1053100044E050E0B60181EB90E00E94B334892B69
:1053200011F40E94BB2DF6018081811104C084EF2D
:1053300095E00E942A1360E270E0C6010E94A83442
:10534000892B09F442C0AE014F5F5F4F64E670E005
:10535000C6010E94CB346C01FC0101900020E9F7EA
:105360003197E81BF90B9E2E3EE8E32E37E0F32E33
:1053700000E010E05F01BB249920F1F0A501B70126
:10538000C6010E947834892BB9F4F7018591949174
:10539000892B09F452C0F80123E0EE0FFF1F2A9574
:1053A000E1F7EC56F84F259134912115310509F4B8
:1053B00044C089819A8136C00F5F1F4FF8E0EF0E1D
:1053C000F11C09311105C1F638C0F6010190002029
:1053D000E9F73197EC19FD099E2E9EE8E92E97E03A
:1053E000F92E00E010E05F01BB249920F1F0A50147
:1053F000B701C6010E947834892BB9F4F701859171
:105400009491892BD1F0F80183E0EE0FFF1F8A956C
:10541000E1F7EC56F84F259134912115310569F0EB
:1054200080E090E0F901099508C00F5F1F4FF8E098
:10543000EF0EF11C09311105C1F60F900F90DF91AD
:10544000CF911F910F91FF90EF90DF90CF90BF9081
:10545000AF909F9008958FEE95E00E942A1380915F
:10546000B7049091B8046AE070E00E94391387EEA7
:1054700095E00C942A1382EE95E00E942A13809105
:10548000EB006AE070E080FF03C084E090E002C0BF
:1054900084E690E00E9439138CED95E00E942A1377
:1054A0008091EB006AE070E081FF03C08AE090E049
:1054B00002C084EF91E00E94391386ED95E00E94CE
:1054C0002A138091F7006AE070E090E00E9439139F
:1054D0008EEC95E00C942A1389EC95E00E942A1337
:1054E0008091EB0080FF05C08091BD049091BE04C7
:1054F00004C08091BB049091BC046AE070E00E94FB
:10550000391383EC95E00E942A138091EB0081FF10
:1055100005C08091B7049091B80404C08091B9048B
:105520009091BA046AE070E00E9439138DEB95E027
:105530000E942A138091F7006AE070E090E00E94D8
:10554000391385EB95E00C942A138AE19BE00E94C5
:105550002A1380E0089585EF9AE00E942A1381E0E3
:10556000089580ED9AE00E942A1381E008958BEA65
:105570009AE00E942A1381E0089586E89AE00E944A
:105580002A1381E0089581E69AE00E942A1381E0BF
:1055900008958CE39AE00E942A1381E0089587E140
:1055A0009AE00E942A1381E0089582EF99E00E9418
:1055B0002A1381E008958DEC99E00E942A1381E07E
:1055C000089587EA99E00E942A1381E0089581E80E
:1055D00099E00E942A1381E008958BE599E00E94EA
:1055E0002A1381E0089585E399E00E942A1381E05F
:1055F000089580E199E00E942A1381E008958AEEDF
:1056000098E00E942A1381E0089584EC98E00E94BB
:105610002A1381E008958AE998E00E942A1381E024
:10562000089580E798E00E942A1381E00895089584
:105630003F924F925F926F927F928F929F92AF9222
:10564000BF92CF92DF92EF92FF920F931F93CF936F
:10565000DF93562E422E3701EA01312C882E912CF1
:10566000351409F463C0FE013A96A4903296E49191
:10567000EE2EF12CB12CA814B90424F4E114F10499
:1056800009F44FC0FE013B96E491CE2ED12CE114DB
:10569000F104F1F0A601BE01C8010E947834892B03
:1056A00009F03FC0A501BE01C8010E947834892BD2
:1056B00021F4C8018A0D9B1D03C0C8018C0D9D1DDE
:1056C0000E945A348E159F057CF180E090E02CC03A
:1056D000C814D90414F4A50101C0A601BE01C80173
:1056E0000E947834892BE9F4ED85FE8585919491AB
:1056F000892BB9F0FE013D96259134912115310594
:1057000061F0A3016E2D842DF901099518164CF452
:1057100086EB90E00E941E1304C086E698E00E948B
:105720002A1333942F969CCF7C01DECFDF91CF914B
:105730001F910F91FF90EF90DF90CF90BF90AF90AF
:105740009F908F907F906F905F904F903F900895C3
:10575000EF92FF920F931F93CF93DF9300D0CDB7BB
:10576000DEB78C0147E050E0BC0189EA90E00E947E
:10577000B334892B51F4F89498E088E10FB6F8948B
:10578000A89581BD0FBE91BDFFCFF8018081811129
:1057900004C08EE598E00E942A136FE370E0C80110
:1057A0000E94A834892BE9F0AE014F5F5F4F6FEA8A
:1057B00070E0C8010E94CB34AE014F5F5F4F62E6DC
:1057C00070E00E94CB34FC0101900020E9F7319792
:1057D000E81BF90BEE23C1F1E980FA808C0120E08F
:1057E0002DC060E270E0C8010E94A834AE014F5F96
:1057F0005F4F62E670E0892B89F0C8010E94CB34CC
:10580000FC0101900020E9F73197E81BF90BEE232A
:10581000D9F0E980FA808C0121E010C0C8010E9413
:10582000CB34FC0101900020E9F73197E81BF90B1C
:10583000EE2351F0E980FA808C0122E04EE35BE038
:1058400069E18E2F0E94182B0F900F90DF91CF915E
:105850001F910F91FF90EF9008959F92AF92BF928A
:10586000CF92DF92EF92FF920F931F93CF93DF932C
:1058700000D0CDB7DEB78C01B62EC72ED42EDC01FA
:105880008C91811104C086E598E00E942A136FE391
:1058900070E0C8010E94A834892B21F1AE014F5F4E
:1058A0005F4F6FEA70E0C8010E94CB34AE014F5FDA
:1058B0005F4F62E670E00E94CB34FC010190002053
:1058C000E9F73197E81BF90BEE2309F492C0E98060
:1058D000FA808C0120E04B2D5C2D6D2D8E2F0E94C7
:1058E000182B87C060E270E0C8010E94A834AE01A6
:1058F0004F5F5F4F62E670E0892B09F43EC0C8013C
:105900000E94CB347C01FC0101900020E9F7319723
:10591000E81BF90B9E2E0B2D1C2DC12C5F01BB2407
:10592000CD1409F466C0992021F1A501B801C70181
:105930000E947834892BE9F4D8011D96ED91FC91F1
:105940001E9785919491892B09F453C0F8013D96D7
:10595000259134912115310509F44BC049815A81B3
:1059600060E081E0F901099587FF43C086EB90E094
:105970003EC0C394015F1F4FD3CFC8010E94CB34F8
:105980007C01FC0101900020E9F73197E81BF90B3D
:105990009E2E0B2D1C2DC12C5F01BB2403C0C39474
:1059A000015F1F4FCD1429F19920C9F3A501B8015A
:1059B000C7010E947834892B91F7D8011D96ED918B
:1059C000FC911E9785919491892B99F0F8013D9651
:1059D000259134912115310549F249815A8160E0C0
:1059E00082E0F90109958111C1CF8EEB90E00E9410
:1059F0001E1380E00F900F90DF91CF911F910F91B8
:105A0000FF90EF90DF90CF90BF90AF909F90089560
:105A10000895BD98BF9ABE9A0895C69825E02A9524
:105A2000F1F7C79845E04A95F1F7C79A4FE050E083
:105A300020E030E0E1E0F0E0A5E0AA95F1F7B59BC9
:105A400009C0DF01042E02C0AA0FBB1F0A94E2F7AF
:105A50002A2B3B2BC798A5E0AA95F1F7C79A41508E
:105A6000510951F7E5E0EA95F1F7B5992160A901EF
:105A700036E0569547953A95E1F7FC01518340830E
:105A80002F73FB012083C69A089583EC87B986B1F2
:105A9000866886B9339A089587B1806C87B986B1D4
:105AA000876886B986B1866886B9339A089597B1B2
:105AB000987F892B87B9F894369A3699FECF7894D7
:105AC000349A84B195B108951F920F920FB60F9238
:105AD00011242F933F938F939F93EF93FF93809184
