:100000000C94E1000C94B0080C94BF080C94FE0012
:100010000C94FE000C94FE000C94FE000C941C0941
:100020000C94FE000C94FE000C94FE000C94E4086A
:100030000C94FE000C94FE000C94FE000C94FE0048
:100040000C94FE000C94FE000C94FE000C94FE0038
:100050000C94FE00202020535445524F574E494BDC
:100060000020202057454E54594C41434A49002016
:10007000202020654452495645520020202020541B
:100080002D39303032452076322E31007573742E82
:100090002073696C6E696B006D696E202020206D85
:1000A0006178002000200020202057696574727A52
:1000B000656E6965202020002057796D75737A6F11
:1000C0006E65203130302520002E0043004552520D
:1000D0004F52002E0043004552524F5200542E57AB
:1000E000455720542E5553542057454E54005E43D7
:1000F00020202020250054656D70205072616379A6
:1001000000542E55535420005E43005061736D6FB0
:100110002070727A65646D756368750054656D70E2
:100120003A005E430054656D70206D696E20616C0D
:1001300061726D0054656D703A005E430054656DE8
:1001400070206D617820616C61726D0054656D7016
:100150003A005E430050726163612063796B6C2EDC
:1001600000206D696E2E0050727A6572776120638F
:10017000796B6C2E00206D696E2E0050727A65646A
:100180006D75636800414B5459574E59004E4945AF
:1001900020414B5459574E590020576C2E207072F5
:1001A0007A65646D75636875005E4300506F6473B3
:1001B000776965746C656E69650074616B006E6962
:1001C000650011241FBECFE5D8E0DEBFCDBF10E033
:1001D000A0E6B0E0E4E1FCE102C005900D92A63794
:1001E000B107D9F710E0A6E7B0E001C01D92A63A2A
:1001F000B107E1F70E9443090C94080E0C9400002B
:10020000BC0180E89EE30E94AA0D603128F070E0F6
:10021000605170407595679560B9089586B7846A96
:1002200086BF06B607FEFDCF089584E986BF06B6F1
:1002300004FEFDCF089583B984E886BF06B607FEA5
:10024000FDCF0895CF93DF93C82F0E940E018EE457
:100250000E941B01DC2FD07FC295C07F8091760069
:1002600085608D2B0E941B018091760081608D2B13
:100270000E941B0185E08A95F1F7000080917600CD
:1002800085608C2B0E941B018091760081608C2BF5
:100290000E941B0187EC90E00197F1F700C000007D
:1002A0000E941501DF91CF910895CF93DF93EC0168
:1002B00007C0982F9058983008F487700E94220148
:1002C00089918823B1F7DF91CF910895CF93DF9380
:1002D000CDB7DEB761970FB6F894DEBF0FBECDBFC6
:1002E000BE016F5F7F4F4AE050E00E94BE0D0E944A
:1002F000550161960FB6F894DEBF0FBECDBFDF91FA
:10030000CF910895CF93DF93EC0108C08E2F8058D2
:10031000883008F4E7708E2F0E942201FE0121969A
:10032000E491EE2399F7DF91CF910895CF93DF9376
:10033000C82F0E940E018EE40E941B01DC2FD07F8B
:10034000C295C07F8091760084608D2B0E941B0136
:10035000809176008D2B0E941B0185E08A95F1F734
:1003600000008091760084608C2B0E941B0180919C
:1003700076008C2B0E941B0187EC90E00197F1F72F
:1003800000C000000E941501DF91CF9108958130D7
:1003900009F480E46058860F0E94960108958CE06D
:1003A0000E94960108958EE00E94960108950E9491
:1003B0000E018EE40E941B0181E00E9496010E94C2
:1003C00015018FE39FE10197F1F700C00000089548
:1003D000882311F088E003C080917600877F8093A6
:1003E00076000E940E018EE40E941B01809176002F
:1003F0000E941B010E9415010895882311F084ECCE
:1004000001C084E886BF06B607FEFDCF83B108951C
:10041000CF93DF9300D00F92CDB7DEB74B836A83C3
:1004200089830E940E0189810E941B016A81862FA7
:100430000E941B014B81842F0E941B010E94150109
:100440000F900F900F90DF91CF910895CF93DF938E
:100450000F92CDB7DEB789830E940E01898181603A
:100460000E941B0180E00E94FD0189830E9415010A
:1004700089810F90DF91CF910895CF93C82F846029
:100480000E941B0185E08A95F1F700008C2F0E94E5
:100490001B0187EC90E00197F1F700C00000CF91BD
:1004A00008958FEF90E7A2E081509040A040E1F7DF
:1004B00000C000000E940E018EE40E941B0188E033
:1004C0000E941B010E9415018FEF99E6A8E181505F
:1004D0009040A040E1F700C000000E940E018EE4B1
:1004E0000E941B0180E30E943D02AFE1BEE4119730
:1004F000F1F700C0000080E30E943D0287E592E032
:100500000197F1F700C0000080E30E943D02A7E5DB
:10051000B2E01197F1F700C0000080E20E943D02B6
:100520008FE99FE00197F1F700C0000088E20E9488
:100530009601AFE9BFE01197F1F700C0000088E035
:100540000E9496018FE99FE00197F1F700C000003B
:1005500081E00E949601AFE3BFE11197F1F700C07F
:10056000000086E00E9496018FE99FE00197F1F775
:1005700000C000008CE00E9496010E9415010895C1
:100580000E940E0180E990E00E941B0180E490E04F
:100590000E941B018FEF90E00E941B010E94150139
:1005A0000895CF93C82F843090F40E940E0181E902
:1005B00090E00E941B018C2F90E00E94FD018C2F87
:1005C00090E00E94FD01C82F0E94150101C0C0E00B
:1005D0008C2FCF910895CF93C82F0E940E0180E9F0
:1005E00090E00E941B0180E490E00E941B018C2F90
:1005F00090E00E941B010E941501CF910895FC011B
:1006000020E030E080E0A8E111C0419198E0542F53
:100610005827B52FB17050FD8A278695B13009F45F
:1006200080684695915099F72F5F3F4F26173707FF
:1006300061F70895AF92BF92CF92DF92FF920F932E
:100640001F93CF93DF93CDB7DEB760970FB6F894C3
:10065000DEBF0FBECDBFF82E6A015901FE013196F3
:10066000A0E6B0E080E10D9001928150E1F7FB013E
:10067000408150E0918180E0482B592BF0E1FF163A
:1006800079F4CA018E7F33E0880F991F3A95E1F71C
:10069000FB0126814CE050E0421B5109480F591FD5
:1006A00057FF07C081E0F6018083509541955F4F69
:1006B00002C0F6011082F8E2FF1691F4FB0184817A
:1006C00090E09C01207630702036310549F086FF9D
:1006D00002C04E7F05C085FF02C04C7F01C0487F2D
:1006E000CA0124E0969587952A95E1F7F501808364
:1006F0004F70FE01E40FF11D8181F801808380E0DD
:1007000060960FB6F894DEBF0FBECDBFDF91CF91DC
:100710001F910F91FF90DF90CF90BF90AF90089501
:10072000882319F0709561957F4F442319F0309517
:1007300021953F4F6217730744F081E090E0261740
:1007400037072CF080E090E008958FEF9FEF089539
:100750000F931F93CF93DF93EC018B018881B80136
:100760000E941F05888381508D3F30F4F8018081FD
:10077000883211F0803191F7DF91CF911F910F9165
:1007800008951F93CF93DF93CDB7DEB729970FB6A8
:10079000F894DEBF0FBECDBF8FEF898310E016C087
:1007A000CE010196BE016E5F7F4F0E94A803898132
:1007B0008F3F91F08E3F81F0DE011296E4E8F0E089
:1007C00088E09D9191938150E1F711E08981882320
:1007D00019F0112329F311E0812F29960FB6F8940F
:1007E000DEBF0FBECDBFDF91CF911F910895CF9394
:1007F000DF93EC010E94D30484EBBE010E946A05E2
:1008000081E00E94F104C82F0E94D30481E0CC2330
:1008100009F480E0DF91CF9108951F93CF93DF9388
:10082000182FEB010E94D3040E94CC04882349F0C6
:1008300084E4BE010E946A05113029F00E94CF04B1
:1008400002C082E001C080E0DF91CF911F91089546
:100850006F927F928F929F92BF92CF92DF92EF9290
:10086000FF920F931F93CF93DF93CDB7DEB72997F6
:100870000FB6F894DEBF0FBECDBF7C014B013A012D
:1008800069010E94D3048EEBB7010E946A058E01B4
:100890000F5F1F4FE9E0BE2E0E941B05F8018193F8
:1008A0008F01BA94C9F7CE01019669E070E00E9409
:1008B000FF02882361F4F7018081BE016F5F7F4FE3
:1008C000A401930186010E941A0380E001C083E025
:1008D00029960FB6F894DEBF0FBECDBFDF91CF9142
:1008E0001F910F91FF90EF90DF90CF90BF909F905E
:1008F0008F907F906F9008958F929F92AF92BF924A
:10090000CF92DF92EF92FF920F931F93CF93DF93DB
:10091000CDB7DEB729970FB6F894DEBF0FBECDBFB7
:10092000D82E5B014A0179018EEB60E070E00E94F5
:100930006A058E010F5F1F4FF9E0CF2E0E941B0545
:10094000F80181938F01CA94C9F7CE01019669E03D
:1009500070E00E94FF02882359F48D2DBE016F5F65
:100960007F4FA501940187010E941A0380E001C016
:1009700083E029960FB6F894DEBF0FBECDBFDF919E
:10098000CF911F910F91FF90EF90DF90CF90BF908C
:10099000AF909F908F90089583B388700895AA9A1E
:1009A0000895AA980895AA9887EA97E00197F1F721
:1009B00000C000009FB7F894AA9AEFE3F1E03197E6
:1009C000F1F700C0000083B39FBFEFEBF3E0319776
:1009D000F1F700C000009B9B02C08870089581E081
:1009E00008959AE19A95F1F700C0AA98EAE1EA958C
:1009F000F1F700C08111AA9AFAE1FA95F1F700C067
:100A00009B9B80E0E7E1F1E03197F1F700C0000047
:100A1000AA9A0895CF93DF93C82FD8E08C2F8170C6
:100A20000E94F104C6958111C068D150B9F78C2F8E
:100A3000DF91CF9108958FEF0E940A050895DF920C
:100A4000EF92FF920F931F93CF93DF93182FEB0139
:100A50000E94D304882381F580EF0E940A05EE24CA
:100A600000E498E0D92E81E00E94F104F82E81E0A4
:100A70000E94F104882319F0FF2069F020C0FF20B4
:100A800051F4011728F0888180FF05C0101719F074
:100A9000E02EFF24F3948F2D0E94F1048881869527
:100AA0008883FF2011F0806888830150DA94D9F69A
:100AB00021960023B1F605C0EE24EA9402C08EEF21
:100AC000E82E8E2DDF91CF911F910F91FF90EF9027
:100AD000DF9008950F931F93CF93DF93182FEB01AF
:100AE0000E94D304209751F085E50E940A0508E092
:100AF00089910E940A050150D9F703C08CEC0E942D
:100B00000A05812F0E940A05DF91CF911F910F9155
:100B1000089580917900893030F48F5F8093790057
:100B200081E080937000089580917900882331F0EE
:100B300081508093790081E08093700080917900EA
:100B4000882331F41092780010927700109292006E
:100B5000089580917900813049F480919E00883217
:100B600008F04CC08F5F80939E000895823049F456
:100B700080919300853008F041C08F5F809393008F
:100B80000895833041F480919C008E31B8F58F5FD9
:100B900080939C000895843041F480918C008233CE
:100BA00068F58F5F80938C000895853041F48091C3
:100BB000A4008C3318F58F5F8093A40008958630CD
:100BC00041F48091A5008C33C8F48F5F8093A50019
:100BD0000895873021F481E080939D000895883046
:100BE00041F480919900853048F48F5F809399009B
:100BF0000895893019F481E080939F0008958091D1
:100C00007900882329F00E94A90581E08093700073
:100C1000089580917900813049F480919E0080315F
:100C200008F44EC0815080939E000895823049F4AC
:100C300080919300823008F443C0815080939300E8
:100C40000895833041F480919C008B30C8F181502D
:100C500080939C000895843041F480918C008F3102
:100C600078F1815080938C000895853041F4809113
:100C7000A400882329F181508093A4000895863030
:100C800041F48091A5008230D8F081508093A50076
:100C90000895873039F480919D00882389F010925F
:100CA0009D000895883041F480919900882341F097
:100CB0008150809399000895893011F410929F001B
:100CC000089580917900882329F00E94090681E027
:100CD000809370000895979A8FE39CE90197F1F74C
:100CE00000C0000097980895CF9381E060E00E94D3
:100CF000C70180918D00882389F08091720090E077
:100D00000E94660183ED90E00E9482018091710053
:100D100090E00E94660185ED90E002C087ED90E0D2
:100D20000E9482010E946B0681E06CE00E94C70174
:100D3000C0919600CA3028F483EA90E00E948201B4
:100D400002C0C43620F485EA90E00E9482018C2F14
:100D500090E00E946601CF910895E199FECF81E075
:100D600090E060919E000E94E70DE199FECF82E045
:100D700090E0609193000E94E70DE199FECF83E03F
:100D800090E060919C000E94E70DE199FECF84E025
:100D900090E060918C000E94E70DE199FECF85E024
:100DA00090E06091A5000E94E70DE199FECF86E0FA
:100DB00090E06091A4000E94E70DE199FECF87E0EA
:100DC00090E060919D000E94E70DE199FECF88E0E0
:100DD00090E0609199000E94E70DE199FECF89E0D3
:100DE00090E06091A1000E94E70DE199FECF8AE0BA
:100DF00090E060918E000E94E70DE199FECF8BE0BC
:100E000090E060919F000E94E70D0895CF9380E0ED
:100E100060E00E94C70180917900843009F48FC09E
:100E2000853058F4813099F18130D0F0823009F466
:100E300042C0833009F024C160C0873009F4DDC0AE
:100E4000883038F4853009F49CC0863009F018C128
:100E5000B6C0883009F4E3C0893009F011C1FDC083
:100E60008DED90E00E94820181E067E00E94C70161
:100E700080919E0090E00E9466018EEE90E00E94BC
:100E800082010E94AD0682E080937000F9C086EF77
:100E900090E00E94820181E060E00E94C70181E051
:100EA00091E00E94820180919E0090E00E94660184
:100EB00088E091E0E3C08BE091E00E94820181E054
:100EC00060E00E94C7018CE191E00E948201C09124
:100ED0009300CA3028F483EA90E00E94820102C0A5
:100EE000C43620F485EA90E00E9482018C2F90E0C5
:100EF0000E94660182E291E0C1C085E291E00E9419
:100F0000820181E060E00E94C70184E391E00E94D9
:100F10008201C0919C00CA3028F483EA90E00E94CC
:100F2000820102C0C43620F485EA90E00E9482016A
:100F30008C2F90E00E9466018AE391E09FC08DE3D0
:100F400091E00E94820181E060E00E94C7018CE490
:100F500091E00E948201C0918C00CA3028F483EA9B
:100F600090E00E94820102C0C43620F485EA90E03D
:100F70000E9482018C2F90E00E94660182E591E040
:100F80007DC085E591E00E94820181E062E00E94DF
:100F9000C701C091A400CA3028F483EA90E00E94FF
:100FA000820102C0C43620F485EA90E00E948201EA
:100FB0008C2F90E00E94660181E691E05FC087E699
:100FC00091E00E94820181E062E00E94C701C0912D
:100FD000A500CA3028F483EA90E00E94820102C092
:100FE000C43620F485EA90E00E9482018C2F90E0C4
:100FF0000E94660185E791E041C08BE791E00E9485
:10100000820181E062E00E94C70180919D008823F7
:1010100019F085E891E032C08DE891E02FC089E9B0
:1010200091E00E94820181E065E00E94C701C091C9
:101030009900CA3028F483EA90E00E94820102C03D
:10104000C43620F485EA90E00E9482018C2F90E063
:101050000E94660189EA91E011C08CEA91E00E9449
:10106000820181E065E00E94C70180919F00882392
:1010700019F08AEB91E002C08EEB91E00E948201B0
:10108000CF910895CF93DF93C1E0D0E0CE010E94CD
:10109000DF0D80939E00CE0101960E94DF0D8093AC
:1010A0009300CE0102960E94DF0D80939C00CE013A
:1010B00003960E94DF0D80938C00CE0104960E945F
:1010C000DF0D8093A500CE0105960E94DF0D809371
:1010D000A400CE0106960E94DF0D80939D00CE01F4
:1010E00007960E94DF0D80939900CE0108960E941A
:1010F000DF0D8093A100CE0109960E94DF0D809341
:101100008E00CE010A960E94DF0D80939F00DF9132
:10111000CF910895F89428E088E190E00FB6F89414
:10112000A89581BD0FBE21BDFFCF90919E008091FB
:10113000930081508A3030F49F5081E09A3118F446
:1011400080E001C081E090919C00953030F090915A
:101150008C00933310F4882311F00E948A080895BC
:101160001F920F920FB60F9211248F9381E08093FC
:1011700075008F910F900FBE0F901F9018951F92C2
:101180000F920FB60F9211248F939F9381E080935B
:101190007E009091740080917D00891728F48091E1
:1011A0007D008F5F80937D0080917D00981728F4EB
:1011B00080917D00815080937D009F918F910F9051
:1011C0000FBE0F901F9018951F920F920FB60F929F
:1011D00011248F93809182008F5F809382008436E8
:1011E00028F081E080937F001092820080917C0043
:1011F000882329F080917C00815080937C0080912D
:101200007C00813019F482E0809375008091980011
:10121000882319F081508093980080919800813044
:1012200019F483E0809375008CE382BF8F910F9057
:101230000FBE0F901F9018951F920F920FB60F922E
:1012400011248F939F93809173008111C098809196
:101250007E00882389F08091830090917D0098170B
:1012600040F010927E00809190008111C09A80E63B
:1012700001C08150809383009F918F910F900FBE8A
:101280000F901F9018952FE088E190E00FB6F8942A
:10129000A89581BD0FBE21BD84E690E00E940001AB
:1012A00080E760E04FE00E9408028FE99FE001972D
:1012B000F1F700C0000080E761E04FEF0E940802F4
:1012C0008EB588608EBD8EB583608EBD89E190E05D
:1012D0009BBD8ABD89B7806189BF83B7856083BFA5
:1012E00089B7816089BF83E682BF85B78A6085BF81
:1012F0008BB7806C8BBFB89A8F9AA59AA09AA19849
:10130000789481E00E94E8010E94510280E060E050
:101310000E94C70184E590E00E94820181E060E0C4
:101320000E94C70181E690E00E94820180E761E0AF
:101330004EEF0E9408020E94C10380939A0080E051
:1013400060E070E00E940D0480E761E04CEF0E94D5
:1013500008028FEF9EE9A4E281509040A040E1F79F
:1013600000C0000080E761E048EF0E940802A895F5
:101370000E94D70180E060E00E94C7018FE690E004
:101380000E94820181E060E00E94C7018BE790E04B
:101390000E9482018FEF93EDA0E381509040A04026
:1013A000E1F700C0000080E761E040EF0E94080222
:1013B0000E94420880E761E040EE0E940802AFE927
:1013C000BFE01197F1F700C0000080E70E942602FD
:1013D00080939B0086FF17C081E0809379000E9474
:1013E000D70180E060E00E94C7018CE890E00E9495
:1013F000820181E060E00E94C70188E990E00E94DC
:1014000082010E94D30181E080939000C1E08EC0F0
:10141000A89580E70E94260280939B0085FF02C06A
:101420001092790086FF05C0809179008F5F8093CC
:10143000790080917900833010F0C0937900809119
:101440007900813099F58091A1008093740081E04A
:1014500063E00E94C701D091A100DA3028F483EA4A
:1014600090E00E94820102C0D43620F485EA90E028
:101470000E9482018D2F90E00E94660180919B0066
:1014800087FF07C09091A1009D3218F49F5F909351
:10149000A10084FF07C08091A100863018F0815020
:1014A0008093A10081E065E00E94C70180917900EE
:1014B000823099F580918E008093740081E06AE01B
:1014C0000E94C701D0918E00DA3028F483EA90E0C0
:1014D0000E94820102C0D43620F485EA90E00E9486
:1014E00082018D2F90E00E94660180919B0087FF12
:1014F00007C090918E00943618F49F5F90938E00F1
:1015000084FF07C080918E00833318F08150809350
:101510008E0081E06CE00E94C7018FEF91EEA4E0A5
:1015200081509040A040E1F700C000008091790018
:10153000882309F06DCF0E94CF011092790080E7D7
:1015400061E040EC0E9408022EE088E190E00FB6D6
:10155000F894A89581BD0FBE21BD80E761E040E809
:101560000E94080280917700846080937700AFE941
:10157000BFE01197F1F700C0000080E760E040E0B5
:101580000E9408028FE99FE00197F1F700C0000078
:1015900080E761E0409177000E940802C1E0DFEF40
:1015A0004CC080917B00882311F5C0937B000E9482
:1015B000D70180E060E00E94C70187EA90E00E94C6
:1015C000820181E060E00E94C70188EB90E00E9408
:1015D000820110927300C093900080917700886F11
:1015E0008093770080E761E048EF0E940802109145
:1015F0007500113011F5AFE9BFE01197F1F700C0A8
:1016000000001092750080E70E94260280939B00E4
:1016100087FF0AC010927A0010927B00109370002E
:1016200010937300109290008FEF91EEA4E0815020
:101630009040A040E1F700C00000A89580917A009A
:10164000882309F0AECF80917500813099F5109212
:10165000750080919800882321F1AFE9BFE01197D0
:10166000F1F700C0000080E70E94260280939B00F3
:1016700084FF02C00E94610680919B0085FF02C02A
:101680000E94940580919B0086FF02C00E948905FC
:1016900080919B0087FF02C00E94FF0584E6809333
:1016A0007C0080919F00882319F481E00E94E8016A
:1016B000D093980080917500823009F040C010925C
:1016C00075008FE99FE00197F1F700C00000D0930B
:1016D000980080E70E94260280939B0084FF0BC045
:1016E0000E9461068FE080937C00809179008823BE
:1016F00011F40E948A0880919B0085FF02C00E941D
:10170000940580919B0086FF02C00E94890580910C
:101710009B0087FF0BC00E94FF058FE080937C0039
:1017200080917900882311F4C0937A008FEF91EEB5
:10173000A4E081509040A040E1F700C000008091FB
:101740007500833061F41092750080919F008823AA
:1017500011F40E94E80110927900C093700080910A
:101760007000813041F4109270000E94D7010E94F5
:1017700006070E946B06809170008230B1F51092CE
:10178000700081E060E00E94C70180918D00882395
:1017900089F08091720090E00E94660189EC90E0EF
:1017A0000E9482018091710090E00E9466018BECA2
:1017B00090E002C08DEC90E00E94820181E06CE03C
:1017C0000E94C701109196001A3028F483EA90E035
:1017D0000E94820102C0143620F485EA90E00E9443
:1017E0008201812F90E00E94660180917F00882312
:1017F00009F423CF80918100982F9F5F90938100FF
:101800008C3320F0C09380001092810088E265E95B
:1018100070E042E750E021E730E00E947C0488233A
:1018200041F480917200882339F4809171008823FB
:1018300019F410928D0002C0C0938D0080E060E02A
:1018400070E00E940D0420917200253509F466C1F4
:1018500080918D00882309F4D4C0822F90E0AC01E0
:10186000440F551FF3E0880F991FFA95E1F7480FD1
:10187000591F80917100480F511D5093A300409350
:10188000A20020919E00E22FF0E0822F90E0BC01A8
:10189000660F771FB3E0880F991FBA95E1F7680FBD
:1018A000791F46175707D8F1C0939000C093730073
:1018B00086EF9FEFE89F9001E99F300DF89F300D74
:1018C0001124240F351FC901880F991F73E0220FBF
:1018D000331F7A95E1F7820F931F6091930070E0B8
:1018E0000E94AA0D7093970060939600653671056B
:1018F00048F084E690E090939700809396001092D1
:10190000730002C0C09373008091780082608B7F67
:10191000809378001092800010928F007AC080919E
:10192000780084608D7F80937800809196009091FC
:10193000970002978236910520F41092970010923A
:10194000960080919D00882309F456C0E09199008B
:10195000F0E030E0CA016AE070E00E94AA0D261BA8
:10196000370B2E173F0708F447C08091A400882347
:1019700081F090918F00992361F4C0938F00809340
:101980009400C093900010927300109297001092F0
:101990009600809180008823E1F110928000809170
:1019A0009400882319F081508093940080918F00D7
:1019B000823031F480919400882311F410928F00CA
:1019C00080918F00813029F590919400992309F539
:1019D00092E090938F00109280009091A5009093D8
:1019E0009400809373001092900084E690E09093AE
:1019F0009700809396000DC0109297001092960069
:101A000008C01092970010929600C0937300109235
:101A1000900020919600309197002115310521F416
:101A200010929000C0937300E091A10040918E004D
:101A300050E04E1B5109429FC001439F900D529FA1
:101A4000900D112464E670E00E94AA0DE60FE09369
:101A50007400809177002115310541F0982F98602E
:101A6000909377002931310528F40CC0877F80934B
:101A7000770008C0982F9861909377002233310542
:101A800038F40EC0809177008F7E8093770008C075
:101A9000982F9863909377002B34310538F40EC05B
:101AA000809177008F7D8093770008C0982F98678A
:101AB000909377002436310538F408C08091770080
:101AC0008F7B8093770002C0886F03C0809177007E
:101AD0008F77809377009091720080918C00981797
:101AE00038F080917700816080937700C0939200F6
:101AF00080919C00981738F48091770082608093E1
:101B00007700C093920080918D00882339F48091F2
:101B10007800886080937800C093920080E761E04D
:101B2000409177000E940802AFE9BFE01197F1F7FA
:101B300000C0000080E760E0409178000E94080249
:101B400080917900882319F482E0809370001092CC
:101B50007F0073CDAA1BBB1B51E107C0AA1FBB1F8F
:101B6000A617B70710F0A61BB70B881F991F5A9529
:101B7000A9F780959095BC01CD010895FB019F01C7
:101B8000E8944230C4F04532B4F44A3029F497FB6B
:101B90001EF4909581959F4F642F77270E94AA0D80
:101BA000805D8A330CF0895D8193CB010097A1F7AA
:101BB00016F45DE251931082C9010C94F80DE1997D
:101BC000FECF9FBB8EBBE09A99278DB30895262F39
:101BD000E199FECF9FBB8EBBE09A01970DB2021632
:101BE00031F02DBB0FB6F894E29AE19A0FBE08953A
:101BF000DC01FC01672F71917723E1F7329704C074
:101C00007C916D9370836291AE17BF07C8F30895FE
:041C1000F894FFCF76
:101C14000001010202030404050606070708090976
:061C2400010514010F018F
:00000001FF
